{"abi":[{"type":"constructor","inputs":[{"name":"owner_","type":"address","internalType":"address"}],"stateMutability":"nonpayable"},{"type":"function","name":"blacklist","inputs":[{"name":"type_","type":"uint64","internalType":"uint64"}],"outputs":[],"stateMutability":"nonpayable"},{"type":"function","name":"blacklisted","inputs":[{"name":"type_","type":"uint64","internalType":"uint64"}],"outputs":[{"name":"value","type":"bool","internalType":"bool"}],"stateMutability":"view"},{"type":"function","name":"create","inputs":[{"name":"type_","type":"uint64","internalType":"uint64"},{"name":"data","type":"bytes","internalType":"bytes"}],"outputs":[{"name":"entity_","type":"address","internalType":"address"}],"stateMutability":"nonpayable"},{"type":"function","name":"entity","inputs":[{"name":"index","type":"uint256","internalType":"uint256"}],"outputs":[{"name":"","type":"address","internalType":"address"}],"stateMutability":"view"},{"type":"function","name":"implementation","inputs":[{"name":"type_","type":"uint64","internalType":"uint64"}],"outputs":[{"name":"","type":"address","internalType":"address"}],"stateMutability":"view"},{"type":"function","name":"isEntity","inputs":[{"name":"entity_","type":"address","internalType":"address"}],"outputs":[{"name":"","type":"bool","internalType":"bool"}],"stateMutability":"view"},{"type":"function","name":"owner","inputs":[],"outputs":[{"name":"","type":"address","internalType":"address"}],"stateMutability":"view"},{"type":"function","name":"renounceOwnership","inputs":[],"outputs":[],"stateMutability":"nonpayable"},{"type":"function","name":"totalEntities","inputs":[],"outputs":[{"name":"","type":"uint256","internalType":"uint256"}],"stateMutability":"view"},{"type":"function","name":"totalTypes","inputs":[],"outputs":[{"name":"","type":"uint64","internalType":"uint64"}],"stateMutability":"view"},{"type":"function","name":"transferOwnership","inputs":[{"name":"newOwner","type":"address","internalType":"address"}],"outputs":[],"stateMutability":"nonpayable"},{"type":"function","name":"whitelist","inputs":[{"name":"implementation_","type":"address","internalType":"address"}],"outputs":[],"stateMutability":"nonpayable"},{"type":"event","name":"AddEntity","inputs":[{"name":"entity","type":"address","indexed":true,"internalType":"address"}],"anonymous":false},{"type":"event","name":"Blacklist","inputs":[{"name":"type_","type":"uint64","indexed":true,"internalType":"uint64"}],"anonymous":false},{"type":"event","name":"OwnershipTransferred","inputs":[{"name":"previousOwner","type":"address","indexed":true,"internalType":"address"},{"name":"newOwner","type":"address","indexed":true,"internalType":"address"}],"anonymous":false},{"type":"event","name":"Whitelist","inputs":[{"name":"implementation","type":"address","indexed":true,"internalType":"address"}],"anonymous":false},{"type":"error","name":"AlreadyBlacklisted","inputs":[]},{"type":"error","name":"AlreadyWhitelisted","inputs":[]},{"type":"error","name":"EntityNotExist","inputs":[]},{"type":"error","name":"FailedDeployment","inputs":[]},{"type":"error","name":"InsufficientBalance","inputs":[{"name":"balance","type":"uint256","internalType":"uint256"},{"name":"needed","type":"uint256","internalType":"uint256"}]},{"type":"error","name":"InvalidImplementation","inputs":[]},{"type":"error","name":"InvalidType","inputs":[]},{"type":"error","name":"OwnableInvalidOwner","inputs":[{"name":"owner","type":"address","internalType":"address"}]},{"type":"error","name":"OwnableUnauthorizedAccount","inputs":[{"name":"account","type":"address","internalType":"address"}]}],"bytecode":{"object":"0x608060405234801561000f575f5ffd5b5060405161127f38038061127f833981810160405281019061003191906101db565b80805f73ffffffffffffffffffffffffffffffffffffffff168173ffffffffffffffffffffffffffffffffffffffff16036100a3575f6040517f1e4fbdf700000000000000000000000000000000000000000000000000000000815260040161009a9190610215565b60405180910390fd5b6100b2816100ba60201b60201c565b50505061022e565b5f60025f9054906101000a900473ffffffffffffffffffffffffffffffffffffffff1690508160025f6101000a81548173ffffffffffffffffffffffffffffffffffffffff021916908373ffffffffffffffffffffffffffffffffffffffff1602179055508173ffffffffffffffffffffffffffffffffffffffff168173ffffffffffffffffffffffffffffffffffffffff167f8be0079c531659141344cd1fd0a4f28419497f9722a3daafe3b4186f6b6457e060405160405180910390a35050565b5f5ffd5b5f73ffffffffffffffffffffffffffffffffffffffff82169050919050565b5f6101aa82610181565b9050919050565b6101ba816101a0565b81146101c4575f5ffd5b50565b5f815190506101d5816101b1565b92915050565b5f602082840312156101f0576101ef61017d565b5b5f6101fd848285016101c7565b91505092915050565b61020f816101a0565b82525050565b5f6020820190506102285f830184610206565b92915050565b6110448061023b5f395ff3fe608060405234801561000f575f5ffd5b50600436106100b2575f3560e01c8063b572a9661161006f578063b572a96614610178578063b6caa11914610194578063cd108ef8146101c4578063f15df2e5146101f4578063f2fde38b14610212578063f96616021461022e576100b2565b806314887c58146100b65780635cd8b15e146100e6578063715018a6146101045780638da5cb5b1461010e5780639b19251a1461012c578063b42ba2a214610148575b5f5ffd5b6100d060048036038101906100cb9190610c28565b61025e565b6040516100dd9190610c6d565b60405180910390f35b6100ee610279565b6040516100fb9190610c9e565b60405180910390f35b61010c610288565b005b61011661029b565b6040516101239190610cc6565b60405180910390f35b61014660048036038101906101419190610c28565b6102c3565b005b610162600480360381019061015d9190610d09565b6104c0565b60405161016f9190610cc6565b60405180910390f35b610192600480360381019061018d9190610d71565b6104db565b005b6101ae60048036038101906101a99190610d71565b610619565b6040516101bb9190610c6d565b60405180910390f35b6101de60048036038101906101d99190610dfd565b610636565b6040516101eb9190610cc6565b60405180910390f35b6101fc610715565b6040516102099190610e69565b60405180910390f35b61022c60048036038101906102279190610c28565b610725565b005b61024860048036038101906102439190610d71565b6107a9565b6040516102559190610cc6565b60405180910390f35b5f610272825f6107cf90919063ffffffff16565b9050919050565b5f6102835f6107fc565b905090565b61029061080f565b6102995f610896565b565b5f60025f9054906101000a900473ffffffffffffffffffffffffffffffffffffffff16905090565b6102cb61080f565b3073ffffffffffffffffffffffffffffffffffffffff168173ffffffffffffffffffffffffffffffffffffffff16632dd310006040518163ffffffff1660e01b8152600401602060405180830381865afa15801561032b573d5f5f3e3d5ffd5b505050506040513d601f19601f8201168201806040525081019061034f9190610e96565b73ffffffffffffffffffffffffffffffffffffffff161415806103f95750610375610715565b67ffffffffffffffff168173ffffffffffffffffffffffffffffffffffffffff1663bb24fe8a6040518163ffffffff1660e01b8152600401602060405180830381865afa1580156103c8573d5f5f3e3d5ffd5b505050506040513d601f19601f820116820180604052508101906103ec9190610ed5565b67ffffffffffffffff1614155b15610430576040517f68155f9a00000000000000000000000000000000000000000000000000000000815260040160405180910390fd5b61044481600461095990919063ffffffff16565b61047a576040517fb73e95e100000000000000000000000000000000000000000000000000000000815260040160405180910390fd5b8073ffffffffffffffffffffffffffffffffffffffff167feb73900b98b6a3e2b8b01708fe544760cf570d21e7fbe5225f24e48b5b2b432e60405160405180910390a250565b5f6104d4825f61098690919063ffffffff16565b9050919050565b6104e361080f565b806104ec610715565b67ffffffffffffffff168167ffffffffffffffff1610610538576040517fb968846100000000000000000000000000000000000000000000000000000000815260040160405180910390fd5b60035f8367ffffffffffffffff1667ffffffffffffffff1681526020019081526020015f205f9054906101000a900460ff16156105a1576040517ff53de75f00000000000000000000000000000000000000000000000000000000815260040160405180910390fd5b600160035f8467ffffffffffffffff1667ffffffffffffffff1681526020019081526020015f205f6101000a81548160ff0219169083151502179055508167ffffffffffffffff167ffc8245c2838846b295ae66fbe0d08e20c799b737c93b56f7b209df2e5fa2d45860405160405180910390a25050565b6003602052805f5260405f205f915054906101000a900460ff1681565b5f61069b610642610279565b8585856040516020016106589493929190610f5a565b60405160208183030381529060405280519060200120610677866107a9565b73ffffffffffffffffffffffffffffffffffffffff1661099d90919063ffffffff16565b90506106a6816109b1565b8073ffffffffffffffffffffffffffffffffffffffff1663439fab9184846040518363ffffffff1660e01b81526004016106e1929190610f98565b5f604051808303815f87803b1580156106f8575f5ffd5b505af115801561070a573d5f5f3e3d5ffd5b505050509392505050565b5f61072060046107fc565b905090565b61072d61080f565b5f73ffffffffffffffffffffffffffffffffffffffff168173ffffffffffffffffffffffffffffffffffffffff160361079d575f6040517f1e4fbdf70000000000000000000000000000000000000000000000000000000081526004016107949190610cc6565b60405180910390fd5b6107a681610896565b50565b5f6107c88267ffffffffffffffff16600461098690919063ffffffff16565b9050919050565b5f6107f4835f018373ffffffffffffffffffffffffffffffffffffffff165f1b610a0b565b905092915050565b5f610808825f01610a2b565b9050919050565b610817610a3a565b73ffffffffffffffffffffffffffffffffffffffff1661083561029b565b73ffffffffffffffffffffffffffffffffffffffff161461089457610858610a3a565b6040517f118cdaa700000000000000000000000000000000000000000000000000000000815260040161088b9190610cc6565b60405180910390fd5b565b5f60025f9054906101000a900473ffffffffffffffffffffffffffffffffffffffff1690508160025f6101000a81548173ffffffffffffffffffffffffffffffffffffffff021916908373ffffffffffffffffffffffffffffffffffffffff1602179055508173ffffffffffffffffffffffffffffffffffffffff168173ffffffffffffffffffffffffffffffffffffffff167f8be0079c531659141344cd1fd0a4f28419497f9722a3daafe3b4186f6b6457e060405160405180910390a35050565b5f61097e835f018373ffffffffffffffffffffffffffffffffffffffff165f1b610a41565b905092915050565b5f610993835f0183610aa8565b5f1c905092915050565b5f6109a983835f610acf565b905092915050565b6109c4815f61095990919063ffffffff16565b508073ffffffffffffffffffffffffffffffffffffffff167fb919910dcefbf753bfd926ab3b1d3f85d877190c3d01ba1bd585047b99b99f0b60405160405180910390a250565b5f5f836001015f8481526020019081526020015f20541415905092915050565b5f815f01805490509050919050565b5f33905090565b5f610a4c8383610a0b565b610a9e57825f0182908060018154018082558091505060019003905f5260205f20015f9091909190915055825f0180549050836001015f8481526020019081526020015f208190555060019050610aa2565b5f90505b92915050565b5f825f018281548110610abe57610abd610fba565b5b905f5260205f200154905092915050565b5f81471015610b175747826040517fcf479181000000000000000000000000000000000000000000000000000000008152600401610b0e929190610fe7565b60405180910390fd5b763d602d80600a3d3981f3363d3d373d3d3d363d730000008460601b60e81c175f526e5af43d82803e903d91602b57fd5bf38460781b17602052826037600984f590505f73ffffffffffffffffffffffffffffffffffffffff168173ffffffffffffffffffffffffffffffffffffffff1603610bbf576040517fb06ebf3d00000000000000000000000000000000000000000000000000000000815260040160405180910390fd5b9392505050565b5f5ffd5b5f5ffd5b5f73ffffffffffffffffffffffffffffffffffffffff82169050919050565b5f610bf782610bce565b9050919050565b610c0781610bed565b8114610c11575f5ffd5b50565b5f81359050610c2281610bfe565b92915050565b5f60208284031215610c3d57610c3c610bc6565b5b5f610c4a84828501610c14565b91505092915050565b5f8115159050919050565b610c6781610c53565b82525050565b5f602082019050610c805f830184610c5e565b92915050565b5f819050919050565b610c9881610c86565b82525050565b5f602082019050610cb15f830184610c8f565b92915050565b610cc081610bed565b82525050565b5f602082019050610cd95f830184610cb7565b92915050565b610ce881610c86565b8114610cf2575f5ffd5b50565b5f81359050610d0381610cdf565b92915050565b5f60208284031215610d1e57610d1d610bc6565b5b5f610d2b84828501610cf5565b91505092915050565b5f67ffffffffffffffff82169050919050565b610d5081610d34565b8114610d5a575f5ffd5b50565b5f81359050610d6b81610d47565b92915050565b5f60208284031215610d8657610d85610bc6565b5b5f610d9384828501610d5d565b91505092915050565b5f5ffd5b5f5ffd5b5f5ffd5b5f5f83601f840112610dbd57610dbc610d9c565b5b8235905067ffffffffffffffff811115610dda57610dd9610da0565b5b602083019150836001820283011115610df657610df5610da4565b5b9250929050565b5f5f5f60408486031215610e1457610e13610bc6565b5b5f610e2186828701610d5d565b935050602084013567ffffffffffffffff811115610e4257610e41610bca565b5b610e4e86828701610da8565b92509250509250925092565b610e6381610d34565b82525050565b5f602082019050610e7c5f830184610e5a565b92915050565b5f81519050610e9081610bfe565b92915050565b5f60208284031215610eab57610eaa610bc6565b5b5f610eb884828501610e82565b91505092915050565b5f81519050610ecf81610d47565b92915050565b5f60208284031215610eea57610ee9610bc6565b5b5f610ef784828501610ec1565b91505092915050565b5f82825260208201905092915050565b828183375f83830152505050565b5f601f19601f8301169050919050565b5f610f398385610f00565b9350610f46838584610f10565b610f4f83610f1e565b840190509392505050565b5f606082019050610f6d5f830187610c8f565b610f7a6020830186610e5a565b8181036040830152610f8d818486610f2e565b905095945050505050565b5f6020820190508181035f830152610fb1818486610f2e565b90509392505050565b7f4e487b71000000000000000000000000000000000000000000000000000000005f52603260045260245ffd5b5f604082019050610ffa5f830185610c8f565b6110076020830184610c8f565b939250505056fea264697066735822122020c19b24b30804f99b90dc8e16b5f65ccf3144b8a06f79fb2a6697bec14dd88e64736f6c63430008230033","linkReferences":{}},"methodIdentifiers":{"blacklist(uint64)":"b572a966","blacklisted(uint64)":"b6caa119","create(uint64,bytes)":"cd108ef8","entity(uint256)":"b42ba2a2","implementation(uint64)":"f9661602","isEntity(address)":"14887c58","owner()":"8da5cb5b","renounceOwnership()":"715018a6","totalEntities()":"5cd8b15e","totalTypes()":"f15df2e5","transferOwnership(address)":"f2fde38b","whitelist(address)":"9b19251a"},"id":117}