{"abi":[{"type":"constructor","inputs":[{"name":"networkRegistry","type":"address","internalType":"address"}],"stateMutability":"nonpayable"},{"type":"function","name":"NETWORK_REGISTRY","inputs":[],"outputs":[{"name":"","type":"address","internalType":"address"}],"stateMutability":"view"},{"type":"function","name":"middleware","inputs":[{"name":"network","type":"address","internalType":"address"}],"outputs":[{"name":"value","type":"address","internalType":"address"}],"stateMutability":"view"},{"type":"function","name":"setMiddleware","inputs":[{"name":"middleware_","type":"address","internalType":"address"}],"outputs":[],"stateMutability":"nonpayable"},{"type":"event","name":"SetMiddleware","inputs":[{"name":"network","type":"address","indexed":true,"internalType":"address"},{"name":"middleware","type":"address","indexed":false,"internalType":"address"}],"anonymous":false},{"type":"error","name":"AlreadySet","inputs":[]},{"type":"error","name":"NotNetwork","inputs":[]}],"bytecode":{"object":"0x60a060405234801561000f575f5ffd5b506040516105b23803806105b2833981810160405281019061003191906100c9565b8073ffffffffffffffffffffffffffffffffffffffff1660808173ffffffffffffffffffffffffffffffffffffffff1681525050506100f4565b5f5ffd5b5f73ffffffffffffffffffffffffffffffffffffffff82169050919050565b5f6100988261006f565b9050919050565b6100a88161008e565b81146100b2575f5ffd5b50565b5f815190506100c38161009f565b92915050565b5f602082840312156100de576100dd61006b565b5b5f6100eb848285016100b5565b91505092915050565b6080516104a06101125f395f818160af015261033701526104a05ff3fe608060405234801561000f575f5ffd5b506004361061003f575f3560e01c8063b7d8e1a914610043578063bb5ed0321461005f578063c0cd7c3e1461008f575b5f5ffd5b61005d600480360381019061005891906103b7565b6100ad565b005b610079600480360381019061007491906103b7565b610306565b60405161008691906103f1565b60405180910390f35b610097610335565b6040516100a491906103f1565b60405180910390f35b7f000000000000000000000000000000000000000000000000000000000000000073ffffffffffffffffffffffffffffffffffffffff166314887c58336040518263ffffffff1660e01b815260040161010691906103f1565b602060405180830381865afa158015610121573d5f5f3e3d5ffd5b505050506040513d601f19601f82011682018060405250810190610145919061043f565b61017b576040517f8f54ee5c00000000000000000000000000000000000000000000000000000000815260040160405180910390fd5b8073ffffffffffffffffffffffffffffffffffffffff165f5f3373ffffffffffffffffffffffffffffffffffffffff1673ffffffffffffffffffffffffffffffffffffffff1681526020019081526020015f205f9054906101000a900473ffffffffffffffffffffffffffffffffffffffff1673ffffffffffffffffffffffffffffffffffffffff160361023b576040517fa741a04500000000000000000000000000000000000000000000000000000000815260040160405180910390fd5b805f5f3373ffffffffffffffffffffffffffffffffffffffff1673ffffffffffffffffffffffffffffffffffffffff1681526020019081526020015f205f6101000a81548173ffffffffffffffffffffffffffffffffffffffff021916908373ffffffffffffffffffffffffffffffffffffffff1602179055503373ffffffffffffffffffffffffffffffffffffffff167ff64e2a8734392e221de13f5e56deb22d308e292cad394052affa97dbaf41ec98826040516102fb91906103f1565b60405180910390a250565b5f602052805f5260405f205f915054906101000a900473ffffffffffffffffffffffffffffffffffffffff1681565b7f000000000000000000000000000000000000000000000000000000000000000081565b5f5ffd5b5f73ffffffffffffffffffffffffffffffffffffffff82169050919050565b5f6103868261035d565b9050919050565b6103968161037c565b81146103a0575f5ffd5b50565b5f813590506103b18161038d565b92915050565b5f602082840312156103cc576103cb610359565b5b5f6103d9848285016103a3565b91505092915050565b6103eb8161037c565b82525050565b5f6020820190506104045f8301846103e2565b92915050565b5f8115159050919050565b61041e8161040a565b8114610428575f5ffd5b50565b5f8151905061043981610415565b92915050565b5f6020828403121561045457610453610359565b5b5f6104618482850161042b565b9150509291505056fea26469706673582212208671a0320e35d28eaff8e57c7dd92d6252087f8a0c0524b26e3a924b568f769464736f6c63430008230033","linkReferences":{}},"methodIdentifiers":{"NETWORK_REGISTRY()":"c0cd7c3e","middleware(address)":"bb5ed032","setMiddleware(address)":"b7d8e1a9"},"id":144}