{"abi":[{"type":"function","name":"entity","inputs":[{"name":"index","type":"uint256","internalType":"uint256"}],"outputs":[{"name":"","type":"address","internalType":"address"}],"stateMutability":"view"},{"type":"function","name":"isEntity","inputs":[{"name":"entity_","type":"address","internalType":"address"}],"outputs":[{"name":"","type":"bool","internalType":"bool"}],"stateMutability":"view"},{"type":"function","name":"registerNetwork","inputs":[],"outputs":[],"stateMutability":"nonpayable"},{"type":"function","name":"totalEntities","inputs":[],"outputs":[{"name":"","type":"uint256","internalType":"uint256"}],"stateMutability":"view"},{"type":"event","name":"AddEntity","inputs":[{"name":"entity","type":"address","indexed":true,"internalType":"address"}],"anonymous":false},{"type":"error","name":"EntityNotExist","inputs":[]},{"type":"error","name":"NetworkAlreadyRegistered","inputs":[]}],"bytecode":{"object":"0x6080604052348015600e575f5ffd5b506104ce8061001c5f395ff3fe608060405234801561000f575f5ffd5b506004361061004a575f3560e01c806314887c581461004e5780635cd8b15e1461007e57806387140b5b1461009c578063b42ba2a2146100a6575b5f5ffd5b6100686004803603810190610063919061035f565b6100d6565b60405161007591906103a4565b60405180910390f35b6100866100f1565b60405161009391906103d5565b60405180910390f35b6100a4610100565b005b6100c060048036038101906100bb9190610418565b61014b565b6040516100cd9190610452565b60405180910390f35b5f6100ea825f61016690919063ffffffff16565b9050919050565b5f6100fb5f610193565b905090565b610109336100d6565b15610140576040517fad5fcda500000000000000000000000000000000000000000000000000000000815260040160405180910390fd5b610149336101a6565b565b5f61015f825f61020090919063ffffffff16565b9050919050565b5f61018b835f018373ffffffffffffffffffffffffffffffffffffffff165f1b610217565b905092915050565b5f61019f825f01610237565b9050919050565b6101b9815f61024690919063ffffffff16565b508073ffffffffffffffffffffffffffffffffffffffff167fb919910dcefbf753bfd926ab3b1d3f85d877190c3d01ba1bd585047b99b99f0b60405160405180910390a250565b5f61020d835f0183610273565b5f1c905092915050565b5f5f836001015f8481526020019081526020015f20541415905092915050565b5f815f01805490509050919050565b5f61026b835f018373ffffffffffffffffffffffffffffffffffffffff165f1b61029a565b905092915050565b5f825f0182815481106102895761028861046b565b5b905f5260205f200154905092915050565b5f6102a58383610217565b6102f757825f0182908060018154018082558091505060019003905f5260205f20015f9091909190915055825f0180549050836001015f8481526020019081526020015f2081905550600190506102fb565b5f90505b92915050565b5f5ffd5b5f73ffffffffffffffffffffffffffffffffffffffff82169050919050565b5f61032e82610305565b9050919050565b61033e81610324565b8114610348575f5ffd5b50565b5f8135905061035981610335565b92915050565b5f6020828403121561037457610373610301565b5b5f6103818482850161034b565b91505092915050565b5f8115159050919050565b61039e8161038a565b82525050565b5f6020820190506103b75f830184610395565b92915050565b5f819050919050565b6103cf816103bd565b82525050565b5f6020820190506103e85f8301846103c6565b92915050565b6103f7816103bd565b8114610401575f5ffd5b50565b5f81359050610412816103ee565b92915050565b5f6020828403121561042d5761042c610301565b5b5f61043a84828501610404565b91505092915050565b61044c81610324565b82525050565b5f6020820190506104655f830184610443565b92915050565b7f4e487b71000000000000000000000000000000000000000000000000000000005f52603260045260245ffdfea26469706673582212204ef565b1e25e6e7cdb9304a564188737f9bbaffd08eecbc33f276f3343897d2164736f6c63430008230033","linkReferences":{}},"methodIdentifiers":{"entity(uint256)":"b42ba2a2","isEntity(address)":"14887c58","registerNetwork()":"87140b5b","totalEntities()":"5cd8b15e"},"id":118}