{"abi":[{"type":"constructor","inputs":[{"name":"delegatorFactory","type":"address","internalType":"address"},{"name":"slasherFactory","type":"address","internalType":"address"},{"name":"vaultFactory","type":"address","internalType":"address"}],"stateMutability":"nonpayable"},{"type":"function","name":"DEFAULT_ADMIN_ROLE","inputs":[],"outputs":[{"name":"","type":"bytes32","internalType":"bytes32"}],"stateMutability":"view"},{"type":"function","name":"DELEGATOR_FACTORY","inputs":[],"outputs":[{"name":"","type":"address","internalType":"address"}],"stateMutability":"view"},{"type":"function","name":"DEPOSITOR_WHITELIST_ROLE","inputs":[],"outputs":[{"name":"","type":"bytes32","internalType":"bytes32"}],"stateMutability":"view"},{"type":"function","name":"DEPOSIT_LIMIT_SET_ROLE","inputs":[],"outputs":[{"name":"","type":"bytes32","internalType":"bytes32"}],"stateMutability":"view"},{"type":"function","name":"DEPOSIT_WHITELIST_SET_ROLE","inputs":[],"outputs":[{"name":"","type":"bytes32","internalType":"bytes32"}],"stateMutability":"view"},{"type":"function","name":"FACTORY","inputs":[],"outputs":[{"name":"","type":"address","internalType":"address"}],"stateMutability":"view"},{"type":"function","name":"IS_DEPOSIT_LIMIT_SET_ROLE","inputs":[],"outputs":[{"name":"","type":"bytes32","internalType":"bytes32"}],"stateMutability":"view"},{"type":"function","name":"SLASHER_FACTORY","inputs":[],"outputs":[{"name":"","type":"address","internalType":"address"}],"stateMutability":"view"},{"type":"function","name":"activeBalanceOf","inputs":[{"name":"account","type":"address","internalType":"address"}],"outputs":[{"name":"","type":"uint256","internalType":"uint256"}],"stateMutability":"view"},{"type":"function","name":"activeBalanceOfAt","inputs":[{"name":"account","type":"address","internalType":"address"},{"name":"timestamp","type":"uint48","internalType":"uint48"},{"name":"hints","type":"bytes","internalType":"bytes"}],"outputs":[{"name":"","type":"uint256","internalType":"uint256"}],"stateMutability":"view"},{"type":"function","name":"activeShares","inputs":[],"outputs":[{"name":"","type":"uint256","internalType":"uint256"}],"stateMutability":"view"},{"type":"function","name":"activeSharesAt","inputs":[{"name":"timestamp","type":"uint48","internalType":"uint48"},{"name":"hint","type":"bytes","internalType":"bytes"}],"outputs":[{"name":"","type":"uint256","internalType":"uint256"}],"stateMutability":"view"},{"type":"function","name":"activeSharesOf","inputs":[{"name":"account","type":"address","internalType":"address"}],"outputs":[{"name":"","type":"uint256","internalType":"uint256"}],"stateMutability":"view"},{"type":"function","name":"activeSharesOfAt","inputs":[{"name":"account","type":"address","internalType":"address"},{"name":"timestamp","type":"uint48","internalType":"uint48"},{"name":"hint","type":"bytes","internalType":"bytes"}],"outputs":[{"name":"","type":"uint256","internalType":"uint256"}],"stateMutability":"view"},{"type":"function","name":"activeStake","inputs":[],"outputs":[{"name":"","type":"uint256","internalType":"uint256"}],"stateMutability":"view"},{"type":"function","name":"activeStakeAt","inputs":[{"name":"timestamp","type":"uint48","internalType":"uint48"},{"name":"hint","type":"bytes","internalType":"bytes"}],"outputs":[{"name":"","type":"uint256","internalType":"uint256"}],"stateMutability":"view"},{"type":"function","name":"burner","inputs":[],"outputs":[{"name":"","type":"address","internalType":"address"}],"stateMutability":"view"},{"type":"function","name":"claim","inputs":[{"name":"recipient","type":"address","internalType":"address"},{"name":"epoch","type":"uint256","internalType":"uint256"}],"outputs":[{"name":"amount","type":"uint256","internalType":"uint256"}],"stateMutability":"nonpayable"},{"type":"function","name":"claimBatch","inputs":[{"name":"recipient","type":"address","internalType":"address"},{"name":"epochs","type":"uint256[]","internalType":"uint256[]"}],"outputs":[{"name":"amount","type":"uint256","internalType":"uint256"}],"stateMutability":"nonpayable"},{"type":"function","name":"collateral","inputs":[],"outputs":[{"name":"","type":"address","internalType":"address"}],"stateMutability":"view"},{"type":"function","name":"currentEpoch","inputs":[],"outputs":[{"name":"","type":"uint256","internalType":"uint256"}],"stateMutability":"view"},{"type":"function","name":"currentEpochStart","inputs":[],"outputs":[{"name":"","type":"uint48","internalType":"uint48"}],"stateMutability":"view"},{"type":"function","name":"delegator","inputs":[],"outputs":[{"name":"","type":"address","internalType":"address"}],"stateMutability":"view"},{"type":"function","name":"deposit","inputs":[{"name":"onBehalfOf","type":"address","internalType":"address"},{"name":"amount","type":"uint256","internalType":"uint256"}],"outputs":[{"name":"depositedAmount","type":"uint256","internalType":"uint256"},{"name":"mintedShares","type":"uint256","internalType":"uint256"}],"stateMutability":"nonpayable"},{"type":"function","name":"depositLimit","inputs":[],"outputs":[{"name":"","type":"uint256","internalType":"uint256"}],"stateMutability":"view"},{"type":"function","name":"depositWhitelist","inputs":[],"outputs":[{"name":"","type":"bool","internalType":"bool"}],"stateMutability":"view"},{"type":"function","name":"epochAt","inputs":[{"name":"timestamp","type":"uint48","internalType":"uint48"}],"outputs":[{"name":"","type":"uint256","internalType":"uint256"}],"stateMutability":"view"},{"type":"function","name":"epochDuration","inputs":[],"outputs":[{"name":"","type":"uint48","internalType":"uint48"}],"stateMutability":"view"},{"type":"function","name":"epochDurationInit","inputs":[],"outputs":[{"name":"","type":"uint48","internalType":"uint48"}],"stateMutability":"view"},{"type":"function","name":"getRoleAdmin","inputs":[{"name":"role","type":"bytes32","internalType":"bytes32"}],"outputs":[{"name":"","type":"bytes32","internalType":"bytes32"}],"stateMutability":"view"},{"type":"function","name":"grantRole","inputs":[{"name":"role","type":"bytes32","internalType":"bytes32"},{"name":"account","type":"address","internalType":"address"}],"outputs":[],"stateMutability":"nonpayable"},{"type":"function","name":"hasRole","inputs":[{"name":"role","type":"bytes32","internalType":"bytes32"},{"name":"account","type":"address","internalType":"address"}],"outputs":[{"name":"","type":"bool","internalType":"bool"}],"stateMutability":"view"},{"type":"function","name":"initialize","inputs":[{"name":"initialVersion","type":"uint64","internalType":"uint64"},{"name":"owner_","type":"address","internalType":"address"},{"name":"data","type":"bytes","internalType":"bytes"}],"outputs":[],"stateMutability":"nonpayable"},{"type":"function","name":"isDelegatorInitialized","inputs":[],"outputs":[{"name":"","type":"bool","internalType":"bool"}],"stateMutability":"view"},{"type":"function","name":"isDepositLimit","inputs":[],"outputs":[{"name":"","type":"bool","internalType":"bool"}],"stateMutability":"view"},{"type":"function","name":"isDepositorWhitelisted","inputs":[{"name":"account","type":"address","internalType":"address"}],"outputs":[{"name":"value","type":"bool","internalType":"bool"}],"stateMutability":"view"},{"type":"function","name":"isInitialized","inputs":[],"outputs":[{"name":"","type":"bool","internalType":"bool"}],"stateMutability":"view"},{"type":"function","name":"isSlasherInitialized","inputs":[],"outputs":[{"name":"","type":"bool","internalType":"bool"}],"stateMutability":"view"},{"type":"function","name":"isWithdrawalsClaimed","inputs":[{"name":"epoch","type":"uint256","internalType":"uint256"},{"name":"account","type":"address","internalType":"address"}],"outputs":[{"name":"value","type":"bool","internalType":"bool"}],"stateMutability":"view"},{"type":"function","name":"migrate","inputs":[{"name":"newVersion","type":"uint64","internalType":"uint64"},{"name":"data","type":"bytes","internalType":"bytes"}],"outputs":[],"stateMutability":"nonpayable"},{"type":"function","name":"nextEpochStart","inputs":[],"outputs":[{"name":"","type":"uint48","internalType":"uint48"}],"stateMutability":"view"},{"type":"function","name":"onSlash","inputs":[{"name":"amount","type":"uint256","internalType":"uint256"},{"name":"captureTimestamp","type":"uint48","internalType":"uint48"}],"outputs":[{"name":"slashedAmount","type":"uint256","internalType":"uint256"}],"stateMutability":"nonpayable"},{"type":"function","name":"owner","inputs":[],"outputs":[{"name":"","type":"address","internalType":"address"}],"stateMutability":"view"},{"type":"function","name":"previousEpochStart","inputs":[],"outputs":[{"name":"","type":"uint48","internalType":"uint48"}],"stateMutability":"view"},{"type":"function","name":"redeem","inputs":[{"name":"claimer","type":"address","internalType":"address"},{"name":"shares","type":"uint256","internalType":"uint256"}],"outputs":[{"name":"withdrawnAssets","type":"uint256","internalType":"uint256"},{"name":"mintedShares","type":"uint256","internalType":"uint256"}],"stateMutability":"nonpayable"},{"type":"function","name":"renounceOwnership","inputs":[],"outputs":[],"stateMutability":"nonpayable"},{"type":"function","name":"renounceRole","inputs":[{"name":"role","type":"bytes32","internalType":"bytes32"},{"name":"callerConfirmation","type":"address","internalType":"address"}],"outputs":[],"stateMutability":"nonpayable"},{"type":"function","name":"revokeRole","inputs":[{"name":"role","type":"bytes32","internalType":"bytes32"},{"name":"account","type":"address","internalType":"address"}],"outputs":[],"stateMutability":"nonpayable"},{"type":"function","name":"setDelegator","inputs":[{"name":"delegator_","type":"address","internalType":"address"}],"outputs":[],"stateMutability":"nonpayable"},{"type":"function","name":"setDepositLimit","inputs":[{"name":"limit","type":"uint256","internalType":"uint256"}],"outputs":[],"stateMutability":"nonpayable"},{"type":"function","name":"setDepositWhitelist","inputs":[{"name":"status","type":"bool","internalType":"bool"}],"outputs":[],"stateMutability":"nonpayable"},{"type":"function","name":"setDepositorWhitelistStatus","inputs":[{"name":"account","type":"address","internalType":"address"},{"name":"status","type":"bool","internalType":"bool"}],"outputs":[],"stateMutability":"nonpayable"},{"type":"function","name":"setIsDepositLimit","inputs":[{"name":"status","type":"bool","internalType":"bool"}],"outputs":[],"stateMutability":"nonpayable"},{"type":"function","name":"setSlasher","inputs":[{"name":"slasher_","type":"address","internalType":"address"}],"outputs":[],"stateMutability":"nonpayable"},{"type":"function","name":"slashableBalanceOf","inputs":[{"name":"account","type":"address","internalType":"address"}],"outputs":[{"name":"","type":"uint256","internalType":"uint256"}],"stateMutability":"view"},{"type":"function","name":"slasher","inputs":[],"outputs":[{"name":"","type":"address","internalType":"address"}],"stateMutability":"view"},{"type":"function","name":"staticDelegateCall","inputs":[{"name":"target","type":"address","internalType":"address"},{"name":"data","type":"bytes","internalType":"bytes"}],"outputs":[],"stateMutability":"nonpayable"},{"type":"function","name":"supportsInterface","inputs":[{"name":"interfaceId","type":"bytes4","internalType":"bytes4"}],"outputs":[{"name":"","type":"bool","internalType":"bool"}],"stateMutability":"view"},{"type":"function","name":"totalStake","inputs":[],"outputs":[{"name":"","type":"uint256","internalType":"uint256"}],"stateMutability":"view"},{"type":"function","name":"transferOwnership","inputs":[{"name":"newOwner","type":"address","internalType":"address"}],"outputs":[],"stateMutability":"nonpayable"},{"type":"function","name":"version","inputs":[],"outputs":[{"name":"","type":"uint64","internalType":"uint64"}],"stateMutability":"view"},{"type":"function","name":"withdraw","inputs":[{"name":"claimer","type":"address","internalType":"address"},{"name":"amount","type":"uint256","internalType":"uint256"}],"outputs":[{"name":"burnedShares","type":"uint256","internalType":"uint256"},{"name":"mintedShares","type":"uint256","internalType":"uint256"}],"stateMutability":"nonpayable"},{"type":"function","name":"withdrawalShares","inputs":[{"name":"epoch","type":"uint256","internalType":"uint256"}],"outputs":[{"name":"amount","type":"uint256","internalType":"uint256"}],"stateMutability":"view"},{"type":"function","name":"withdrawalSharesOf","inputs":[{"name":"epoch","type":"uint256","internalType":"uint256"},{"name":"account","type":"address","internalType":"address"}],"outputs":[{"name":"amount","type":"uint256","internalType":"uint256"}],"stateMutability":"view"},{"type":"function","name":"withdrawals","inputs":[{"name":"epoch","type":"uint256","internalType":"uint256"}],"outputs":[{"name":"amount","type":"uint256","internalType":"uint256"}],"stateMutability":"view"},{"type":"function","name":"withdrawalsOf","inputs":[{"name":"epoch","type":"uint256","internalType":"uint256"},{"name":"account","type":"address","internalType":"address"}],"outputs":[{"name":"","type":"uint256","internalType":"uint256"}],"stateMutability":"view"},{"type":"event","name":"Claim","inputs":[{"name":"claimer","type":"address","indexed":true,"internalType":"address"},{"name":"recipient","type":"address","indexed":true,"internalType":"address"},{"name":"epoch","type":"uint256","indexed":false,"internalType":"uint256"},{"name":"amount","type":"uint256","indexed":false,"internalType":"uint256"}],"anonymous":false},{"type":"event","name":"ClaimBatch","inputs":[{"name":"claimer","type":"address","indexed":true,"internalType":"address"},{"name":"recipient","type":"address","indexed":true,"internalType":"address"},{"name":"epochs","type":"uint256[]","indexed":false,"internalType":"uint256[]"},{"name":"amount","type":"uint256","indexed":false,"internalType":"uint256"}],"anonymous":false},{"type":"event","name":"Deposit","inputs":[{"name":"depositor","type":"address","indexed":true,"internalType":"address"},{"name":"onBehalfOf","type":"address","indexed":true,"internalType":"address"},{"name":"amount","type":"uint256","indexed":false,"internalType":"uint256"},{"name":"shares","type":"uint256","indexed":false,"internalType":"uint256"}],"anonymous":false},{"type":"event","name":"Initialized","inputs":[{"name":"version","type":"uint64","indexed":false,"internalType":"uint64"}],"anonymous":false},{"type":"event","name":"OnSlash","inputs":[{"name":"amount","type":"uint256","indexed":false,"internalType":"uint256"},{"name":"captureTimestamp","type":"uint48","indexed":false,"internalType":"uint48"},{"name":"slashedAmount","type":"uint256","indexed":false,"internalType":"uint256"}],"anonymous":false},{"type":"event","name":"OwnershipTransferred","inputs":[{"name":"previousOwner","type":"address","indexed":true,"internalType":"address"},{"name":"newOwner","type":"address","indexed":true,"internalType":"address"}],"anonymous":false},{"type":"event","name":"RoleAdminChanged","inputs":[{"name":"role","type":"bytes32","indexed":true,"internalType":"bytes32"},{"name":"previousAdminRole","type":"bytes32","indexed":true,"internalType":"bytes32"},{"name":"newAdminRole","type":"bytes32","indexed":true,"internalType":"bytes32"}],"anonymous":false},{"type":"event","name":"RoleGranted","inputs":[{"name":"role","type":"bytes32","indexed":true,"internalType":"bytes32"},{"name":"account","type":"address","indexed":true,"internalType":"address"},{"name":"sender","type":"address","indexed":true,"internalType":"address"}],"anonymous":false},{"type":"event","name":"RoleRevoked","inputs":[{"name":"role","type":"bytes32","indexed":true,"internalType":"bytes32"},{"name":"account","type":"address","indexed":true,"internalType":"address"},{"name":"sender","type":"address","indexed":true,"internalType":"address"}],"anonymous":false},{"type":"event","name":"SetDelegator","inputs":[{"name":"delegator","type":"address","indexed":true,"internalType":"address"}],"anonymous":false},{"type":"event","name":"SetDepositLimit","inputs":[{"name":"limit","type":"uint256","indexed":false,"internalType":"uint256"}],"anonymous":false},{"type":"event","name":"SetDepositWhitelist","inputs":[{"name":"status","type":"bool","indexed":false,"internalType":"bool"}],"anonymous":false},{"type":"event","name":"SetDepositorWhitelistStatus","inputs":[{"name":"account","type":"address","indexed":true,"internalType":"address"},{"name":"status","type":"bool","indexed":false,"internalType":"bool"}],"anonymous":false},{"type":"event","name":"SetIsDepositLimit","inputs":[{"name":"status","type":"bool","indexed":false,"internalType":"bool"}],"anonymous":false},{"type":"event","name":"SetSlasher","inputs":[{"name":"slasher","type":"address","indexed":true,"internalType":"address"}],"anonymous":false},{"type":"event","name":"Withdraw","inputs":[{"name":"withdrawer","type":"address","indexed":true,"internalType":"address"},{"name":"claimer","type":"address","indexed":true,"internalType":"address"},{"name":"amount","type":"uint256","indexed":false,"internalType":"uint256"},{"name":"burnedShares","type":"uint256","indexed":false,"internalType":"uint256"},{"name":"mintedShares","type":"uint256","indexed":false,"internalType":"uint256"}],"anonymous":false},{"type":"error","name":"AccessControlBadConfirmation","inputs":[]},{"type":"error","name":"AccessControlUnauthorizedAccount","inputs":[{"name":"account","type":"address","internalType":"address"},{"name":"neededRole","type":"bytes32","internalType":"bytes32"}]},{"type":"error","name":"AlreadyClaimed","inputs":[]},{"type":"error","name":"AlreadyInitialized","inputs":[]},{"type":"error","name":"AlreadySet","inputs":[]},{"type":"error","name":"CheckpointUnorderedInsertion","inputs":[]},{"type":"error","name":"DelegatorAlreadyInitialized","inputs":[]},{"type":"error","name":"DepositLimitReached","inputs":[]},{"type":"error","name":"InsufficientClaim","inputs":[]},{"type":"error","name":"InsufficientDeposit","inputs":[]},{"type":"error","name":"InsufficientRedemption","inputs":[]},{"type":"error","name":"InsufficientWithdrawal","inputs":[]},{"type":"error","name":"InvalidAccount","inputs":[]},{"type":"error","name":"InvalidCaptureEpoch","inputs":[]},{"type":"error","name":"InvalidClaimer","inputs":[]},{"type":"error","name":"InvalidCollateral","inputs":[]},{"type":"error","name":"InvalidDelegator","inputs":[]},{"type":"error","name":"InvalidEpoch","inputs":[]},{"type":"error","name":"InvalidEpochDuration","inputs":[]},{"type":"error","name":"InvalidInitialization","inputs":[]},{"type":"error","name":"InvalidLengthEpochs","inputs":[]},{"type":"error","name":"InvalidOnBehalfOf","inputs":[]},{"type":"error","name":"InvalidRecipient","inputs":[]},{"type":"error","name":"InvalidSlasher","inputs":[]},{"type":"error","name":"InvalidTimestamp","inputs":[]},{"type":"error","name":"MissingRoles","inputs":[]},{"type":"error","name":"NoPreviousEpoch","inputs":[]},{"type":"error","name":"NotDelegator","inputs":[]},{"type":"error","name":"NotFactory","inputs":[]},{"type":"error","name":"NotInitialized","inputs":[]},{"type":"error","name":"NotInitializing","inputs":[]},{"type":"error","name":"NotSlasher","inputs":[]},{"type":"error","name":"NotWhitelistedDepositor","inputs":[]},{"type":"error","name":"OwnableInvalidOwner","inputs":[{"name":"owner","type":"address","internalType":"address"}]},{"type":"error","name":"OwnableUnauthorizedAccount","inputs":[{"name":"account","type":"address","internalType":"address"}]},{"type":"error","name":"ReentrancyGuardReentrantCall","inputs":[]},{"type":"error","name":"SafeCastOverflowedUintDowncast","inputs":[{"name":"bits","type":"uint8","internalType":"uint8"},{"name":"value","type":"uint256","internalType":"uint256"}]},{"type":"error","name":"SafeERC20FailedOperation","inputs":[{"name":"token","type":"address","internalType":"address"}]},{"type":"error","name":"SlasherAlreadyInitialized","inputs":[]},{"type":"error","name":"TooMuchRedeem","inputs":[]},{"type":"error","name":"TooMuchWithdraw","inputs":[]}],"bytecode":{"object":"0x60e060405234801561000f575f5ffd5b50604051616c23380380616c23833981810160405281019061003191906102dd565b808383600161005261004761010d60201b60201c565b61013660201b60201c565b5f01819055508173ffffffffffffffffffffffffffffffffffffffff1660808173ffffffffffffffffffffffffffffffffffffffff16815250508073ffffffffffffffffffffffffffffffffffffffff1660a08173ffffffffffffffffffffffffffffffffffffffff168152505050506100d061013f60201b60201c565b8073ffffffffffffffffffffffffffffffffffffffff1660c08173ffffffffffffffffffffffffffffffffffffffff168152505050505050610368565b5f7f9b779b17422d0df92223018b32b4d1fa46e071723d6817e2486d003becc55f005f1b905090565b5f819050919050565b5f61014e61023d60201b60201c565b9050805f0160089054906101000a900460ff1615610198576040517ff92ee8a900000000000000000000000000000000000000000000000000000000815260040160405180910390fd5b67ffffffffffffffff8016815f015f9054906101000a900467ffffffffffffffff1667ffffffffffffffff161461023a5767ffffffffffffffff815f015f6101000a81548167ffffffffffffffff021916908367ffffffffffffffff1602179055507fc7f505b2f371ae2175ee4913f4499e1f2633a7b5936321eed1cdaeb6115181d267ffffffffffffffff604051610231919061034f565b60405180910390a15b50565b5f5f61024d61025660201b60201c565b90508091505090565b5f7ff0c57e16840df040f15088dc2f81fe391c3923bec73e23a9662efc9c229c6a005f1b905090565b5f5ffd5b5f73ffffffffffffffffffffffffffffffffffffffff82169050919050565b5f6102ac82610283565b9050919050565b6102bc816102a2565b81146102c6575f5ffd5b50565b5f815190506102d7816102b3565b92915050565b5f5f5f606084860312156102f4576102f361027f565b5b5f610301868287016102c9565b9350506020610312868287016102c9565b9250506040610323868287016102c9565b9150509250925092565b5f67ffffffffffffffff82169050919050565b6103498161032d565b82525050565b5f6020820190506103625f830184610340565b92915050565b60805160a05160c05161687c6103a75f395f8181611000015261110001525f81816125690152612a4a01525f8181611b510152612321015261687c5ff3fe608060405234801561000f575f5ffd5b50600436106103e4575f3560e01c80637953b33b11610208578063aabc249611610123578063ce9b7930116100b6578063ecf7085811610085578063ecf7085814610c4c578063efb559d614610c6a578063f2fde38b14610c9a578063f3fef3a314610cb6578063f5e7ee0f14610ce7576103e4565b8063ce9b793014610bd6578063d547741f14610bf4578063d8dfeb4514610c10578063db38871514610c2e576103e4565b8063bd49c35f116100f2578063bd49c35f14610b4e578063bdc8144b14610b6c578063bfefcd7b14610b88578063c31e8dd714610ba6576103e4565b8063aabc249614610ab4578063aad3ec9614610ad0578063afba70ad14610b00578063b134427114610b30576103e4565b80639d66201b1161019b578063a21a1df91161016a578063a21a1df914610a1a578063a286146614610a38578063a3b5417214610a54578063a5d0322314610a84576103e4565b80639d66201b146109925780639f86fd85146109c2578063a1b12202146109de578063a217fddf146109fc576103e4565b806387df0788116101d757806387df0788146109085780638b0e9f3f146109265780638da5cb5b1461094457806391d1485414610962576103e4565b80637953b33b1461085c5780637c04c80a1461088c578063810da75d146108bc57806383cd9cc3146108ec576103e4565b806348d3b775116103035780635cc0707611610296578063715018a611610265578063715018a6146107b65780637278e31c146107c057806373790ab3146107f0578063766718081461080e578063794b15b71461082c576103e4565b80635cc070761461072c57806361a8c8c41461075c5780636da3e06d1461077a5780636ec1e3f814610798576103e4565b80635346e34f116102d25780635346e34f146106a657806354fd4d50146106c257806357ec83cc146106e057806359f769a9146106fc576103e4565b806348d3b7751461061c5780634ff0876a1461063a57806350861adc1461065857806350f2206814610676576103e4565b80632d73c69c1161037b578063392e53cd1161034a578063392e53cd146105935780634105a7dd146105b157806346361671146105cd57806347e7ef24146105eb576103e4565b80632d73c69c1461050d5780632dd310001461053d5780632f2ff15d1461055b57806336568abe14610577576103e4565b8063248a9ca3116103b7578063248a9ca31461048557806327810b6e146104b5578063281f5752146104d35780632abe3048146104f1576103e4565b806301ffc9a7146103e85780631415519b146104185780631b66c9e1146104365780631e9a695014610454575b5f5ffd5b61040260048036038101906103fd9190615549565b610d17565b60405161040f919061558e565b60405180910390f35b610420610d90565b60405161042d91906155bf565b60405180910390f35b61043e610db4565b60405161044b91906155bf565b60405180910390f35b61046e60048036038101906104699190615665565b610dd8565b60405161047c9291906156b2565b60405180910390f35b61049f600480360381019061049a9190615703565b610ef9565b6040516104ac91906155bf565b60405180910390f35b6104bd610f23565b6040516104ca919061573d565b60405180910390f35b6104db610f48565b6040516104e89190615776565b60405180910390f35b61050b6004803603810190610506919061582d565b610ff6565b005b610527600480360381019061052291906159ec565b6110a3565b6040516105349190615a58565b60405180910390f35b6105456110fe565b604051610552919061573d565b60405180910390f35b61057560048036038101906105709190615a71565b611122565b005b610591600480360381019061058c9190615a71565b611144565b005b61059b6111bf565b6040516105a8919061558e565b60405180910390f35b6105cb60048036038101906105c69190615ad9565b6111ed565b005b6105d56112c4565b6040516105e29190615776565b60405180910390f35b61060560048036038101906106009190615665565b6112dc565b6040516106139291906156b2565b60405180910390f35b61062461176e565b604051610631919061558e565b60405180910390f35b61064261177f565b60405161064f9190615776565b60405180910390f35b610660611797565b60405161066d919061558e565b60405180910390f35b610690600480360381019061068b9190615b04565b6117aa565b60405161069d9190615a58565b60405180910390f35b6106c060048036038101906106bb9190615ad9565b6117c9565b005b6106ca6118a2565b6040516106d79190615b6d565b60405180910390f35b6106fa60048036038101906106f59190615b86565b6118b0565b005b61071660048036038101906107119190615bf7565b611aad565b6040516107239190615a58565b60405180910390f35b61074660048036038101906107419190615c22565b611ad6565b6040516107539190615a58565b60405180910390f35b610764611aeb565b6040516107719190615776565b60405180910390f35b610782611b4f565b60405161078f919061573d565b60405180910390f35b6107a0611b73565b6040516107ad919061558e565b60405180910390f35b6107be611b86565b005b6107da60048036038101906107d59190615c4d565b611b99565b6040516107e79190615a58565b60405180910390f35b6107f8611f6b565b6040516108059190615776565b60405180910390f35b610816611fdb565b6040516108239190615a58565b60405180910390f35b61084660048036038101906108419190615bf7565b61202f565b604051610853919061558e565b60405180910390f35b61087660048036038101906108719190615c8b565b61204c565b6040516108839190615a58565b60405180910390f35b6108a660048036038101906108a19190615d0b565b6120f9565b6040516108b39190615a58565b60405180910390f35b6108d660048036038101906108d19190615b04565b6122b1565b6040516108e39190615a58565b60405180910390f35b61090660048036038101906109019190615bf7565b6122d0565b005b610910612567565b60405161091d919061573d565b60405180910390f35b61092e61258b565b60405161093b9190615a58565b60405180910390f35b61094c6125e9565b604051610959919061573d565b60405180910390f35b61097c60048036038101906109779190615a71565b61261e565b604051610989919061558e565b60405180910390f35b6109ac60048036038101906109a79190615bf7565b61268f565b6040516109b99190615a58565b60405180910390f35b6109dc60048036038101906109d79190615d68565b6126dc565b005b6109e6612774565b6040516109f3919061558e565b60405180910390f35b610a04612786565b604051610a1191906155bf565b60405180910390f35b610a2261278c565b604051610a2f91906155bf565b60405180910390f35b610a526004803603810190610a4d9190615dc5565b6127b0565b005b610a6e6004803603810190610a699190615e03565b61297c565b604051610a7b9190615a58565b60405180910390f35b610a9e6004803603810190610a999190615e03565b61299c565b604051610aab919061558e565b60405180910390f35b610ace6004803603810190610ac99190615bf7565b6129c6565b005b610aea6004803603810190610ae59190615665565b612c91565b604051610af79190615a58565b60405180910390f35b610b1a6004803603810190610b159190615c22565b612dcb565b604051610b279190615a58565b60405180910390f35b610b38612de0565b604051610b45919061573d565b60405180910390f35b610b56612e05565b604051610b639190615a58565b60405180910390f35b610b866004803603810190610b819190615c22565b612e15565b005b610b90612ecc565b604051610b9d9190615a58565b60405180910390f35b610bc06004803603810190610bbb9190615bf7565b612edc565b604051610bcd9190615a58565b60405180910390f35b610bde612f2d565b604051610beb919061573d565b60405180910390f35b610c0e6004803603810190610c099190615a71565b612f52565b005b610c18612f74565b604051610c25919061573d565b60405180910390f35b610c36612f99565b604051610c4391906155bf565b60405180910390f35b610c54612fbd565b604051610c619190615a58565b60405180910390f35b610c846004803603810190610c7f9190615e41565b612fc3565b604051610c919190615a58565b60405180910390f35b610cb46004803603810190610caf9190615bf7565b613026565b005b610cd06004803603810190610ccb9190615665565b6130aa565b604051610cde9291906156b2565b60405180910390f35b610d016004803603810190610cfc9190615e03565b6131cb565b604051610d0e9190615a58565b60405180910390f35b5f7f7965db0b000000000000000000000000000000000000000000000000000000007bffffffffffffffffffffffffffffffffffffffffffffffffffffffff1916827bffffffffffffffffffffffffffffffffffffffffffffffffffffffff19161480610d895750610d888261324d565b5b9050919050565b7fc6aaadd7371d5e8f9ed6849dd66a66573a3ba37167d03f4352c9ba5693678fac81565b7f9c56d972d63cbb4195b3c1484691dfc220fa96a4c47e7b6613bd82a022029e0681565b5f5f610de26132b6565b5f73ffffffffffffffffffffffffffffffffffffffff168473ffffffffffffffffffffffffffffffffffffffff1603610e47576040517f044bc28000000000000000000000000000000000000000000000000000000000815260040160405180910390fd5b610e503361268f565b831115610e89576040517f4830823e00000000000000000000000000000000000000000000000000000000815260040160405180910390fd5b610ea283610e95612e05565b610e9d612ecc565b6132d8565b91505f8203610edd576040517fff74447200000000000000000000000000000000000000000000000000000000815260040160405180910390fd5b610ee88483856132ee565b9050610ef2613523565b9250929050565b5f5f610f0361353d565b9050805f015f8481526020019081526020015f2060010154915050919050565b60015f9054906101000a900473ffffffffffffffffffffffffffffffffffffffff1681565b5f5f610f52611fdb565b90505f8103610f8d576040517f9fa56a5b00000000000000000000000000000000000000000000000000000000815260040160405180910390fd5b610ff06001601a9054906101000a900465ffffffffffff1665ffffffffffff16600183610fba9190615edf565b610fc49190615f12565b600160149054906101000a900465ffffffffffff1665ffffffffffff16610feb9190615f53565b613564565b91505090565b610ffe6132b6565b7f000000000000000000000000000000000000000000000000000000000000000073ffffffffffffffffffffffffffffffffffffffff163373ffffffffffffffffffffffffffffffffffffffff1614611083576040517f32cc723600000000000000000000000000000000000000000000000000000000815260040160405180910390fd5b61109661108e6135bd565b8484846135e1565b61109e613523565b505050565b5f6110f58383600e5f8873ffffffffffffffffffffffffffffffffffffffff1673ffffffffffffffffffffffffffffffffffffffff1681526020019081526020015f206137159092919063ffffffff16565b90509392505050565b7f000000000000000000000000000000000000000000000000000000000000000081565b61112b82610ef9565b61113481613811565b61113e8383613825565b50505050565b61114c61391d565b73ffffffffffffffffffffffffffffffffffffffff168173ffffffffffffffffffffffffffffffffffffffff16146111b0576040517f6697b23200000000000000000000000000000000000000000000000000000000815260040160405180910390fd5b6111ba8282613924565b505050565b5f600260149054906101000a900460ff1680156111e85750600360149054906101000a900460ff165b905090565b6111f56132b6565b7fbae4ee3de6c709ff9a002e774c5b78cb381560b219213c88ae0f1e207c03c02361121f81613811565b8115155f5f9054906101000a900460ff16151503611269576040517fa741a04500000000000000000000000000000000000000000000000000000000815260040160405180910390fd5b815f5f6101000a81548160ff0219169083151502179055507f3e12b7b36c75ac9609a3f58609b331210428e1a85909132638955ba0301eec33826040516112b0919061558e565b60405180910390a1506112c1613523565b50565b600160149054906101000a900465ffffffffffff1681565b5f5f6112e66132b6565b5f73ffffffffffffffffffffffffffffffffffffffff168473ffffffffffffffffffffffffffffffffffffffff160361134b576040517f1aa699c600000000000000000000000000000000000000000000000000000000815260040160405180910390fd5b5f5f9054906101000a900460ff1680156113ac575060055f3373ffffffffffffffffffffffffffffffffffffffff1673ffffffffffffffffffffffffffffffffffffffff1681526020019081526020015f205f9054906101000a900460ff16155b156113e3576040517f04f63b8500000000000000000000000000000000000000000000000000000000815260040160405180910390fd5b5f5f60029054906101000a900473ffffffffffffffffffffffffffffffffffffffff1673ffffffffffffffffffffffffffffffffffffffff166370a08231306040518263ffffffff1660e01b815260040161143e919061573d565b602060405180830381865afa158015611459573d5f5f3e3d5ffd5b505050506040513d601f19601f8201168201806040525081019061147d9190615f9a565b90506114cd3330865f60029054906101000a900473ffffffffffffffffffffffffffffffffffffffff1673ffffffffffffffffffffffffffffffffffffffff16613a1c909392919063ffffffff16565b805f60029054906101000a900473ffffffffffffffffffffffffffffffffffffffff1673ffffffffffffffffffffffffffffffffffffffff166370a08231306040518263ffffffff1660e01b8152600401611528919061573d565b602060405180830381865afa158015611543573d5f5f3e3d5ffd5b505050506040513d601f19601f820116820180604052508101906115679190615f9a565b6115719190615edf565b92505f83036115ac576040517f0e1eddda00000000000000000000000000000000000000000000000000000000815260040160405180910390fd5b5f60019054906101000a900460ff1680156115da5750600454836115ce612e05565b6115d89190615f53565b115b15611611576040517f2484557900000000000000000000000000000000000000000000000000000000815260040160405180910390fd5b5f61161a612e05565b90505f611625612ecc565b9050611632858284613a71565b935061165c61163f613a87565b868461164b9190615f53565b600c613a969092919063ffffffff16565b5050611686611669613a87565b85836116759190615f53565b600a613a969092919063ffffffff16565b50506116f3611693613a87565b8561169d8a61268f565b6116a79190615f53565b600e5f8b73ffffffffffffffffffffffffffffffffffffffff1673ffffffffffffffffffffffffffffffffffffffff1681526020019081526020015f20613a969092919063ffffffff16565b50508673ffffffffffffffffffffffffffffffffffffffff163373ffffffffffffffffffffffffffffffffffffffff167fdcbc1c05240f31ff3ad067ef1ee35ce4997762752e3a095284754544f4c709d787876040516117549291906156b2565b60405180910390a3505050611767613523565b9250929050565b5f5f9054906101000a900460ff1681565b6001601a9054906101000a900465ffffffffffff1681565b600260149054906101000a900460ff1681565b5f6117c18383600a6137159092919063ffffffff16565b905092915050565b6117d16132b6565b7fc6aaadd7371d5e8f9ed6849dd66a66573a3ba37167d03f4352c9ba5693678fac6117fb81613811565b8115155f60019054906101000a900460ff16151503611846576040517fa741a04500000000000000000000000000000000000000000000000000000000815260040160405180910390fd5b815f60016101000a81548160ff0219169083151502179055507ffa7a25a0b611d4ba3c0ea990e90dc23d484a5dd7a1be4733fef2946ba74530c68260405161188e919061558e565b60405180910390a15061189f613523565b50565b5f6118ab6135bd565b905090565b5f6118b96135bd565b67ffffffffffffffff16146118fa576040517f0dc149f000000000000000000000000000000000000000000000000000000000815260040160405180910390fd5b835f611904613ba1565b9050805f0160089054906101000a900460ff168061194c57508167ffffffffffffffff16815f015f9054906101000a900467ffffffffffffffff1667ffffffffffffffff1610155b15611983576040517ff92ee8a900000000000000000000000000000000000000000000000000000000815260040160405180910390fd5b81815f015f6101000a81548167ffffffffffffffff021916908367ffffffffffffffff1602179055506001815f0160086101000a81548160ff0219169083151502179055505f73ffffffffffffffffffffffffffffffffffffffff168573ffffffffffffffffffffffffffffffffffffffff1614611a0557611a0485613bb4565b5b611a53868686868080601f0160208091040260200160405190810160405280939291908181526020018383808284375f81840152601f19601f82011690508083019250505050505050613bc8565b5f815f0160086101000a81548160ff0219169083151502179055507fc7f505b2f371ae2175ee4913f4499e1f2633a7b5936321eed1cdaeb6115181d282604051611a9d9190615b6d565b60405180910390a1505050505050565b5f611acf611aba8361268f565b611ac2612e05565b611aca612ecc565b6132d8565b9050919050565b6006602052805f5260405f205f915090505481565b5f611b4a6001601a9054906101000a900465ffffffffffff1665ffffffffffff16611b14611fdb565b611b1e9190615f12565b600160149054906101000a900465ffffffffffff1665ffffffffffff16611b459190615f53565b613564565b905090565b7f000000000000000000000000000000000000000000000000000000000000000081565b600360149054906101000a900460ff1681565b611b8e61422f565b611b975f6142b6565b565b5f611ba26132b6565b60035f9054906101000a900473ffffffffffffffffffffffffffffffffffffffff1673ffffffffffffffffffffffffffffffffffffffff163373ffffffffffffffffffffffffffffffffffffffff1614611c28576040517fdabc4ad900000000000000000000000000000000000000000000000000000000815260040160405180910390fd5b5f611c31611fdb565b90505f611c3d8461204c565b90505f82118015611c595750600182611c569190615edf565b81105b80611c6357508181115b15611c9a576040517f5e18d2a500000000000000000000000000000000000000000000000000000000815260040160405180910390fd5b5f611ca3612e05565b90505f60065f600186611cb69190615f53565b81526020019081526020015f20549050838303611d77575f8183611cda9190615f53565b9050611ce68882614387565b95505f861115611d71575f611d0684838961439d9092919063ffffffff16565b90505f8188611d159190615edf565b9050611d3f611d22613a87565b8387611d2e9190615edf565b600c613a969092919063ffffffff16565b50508084611d4d9190615edf565b60065f600189611d5d9190615f53565b81526020019081526020015f208190555050505b50611ea8565b5f60065f8681526020019081526020015f205490505f828285611d9a9190615f53565b611da49190615f53565b9050611db08982614387565b96505f871115611ea5575f611dd085838a61439d9092919063ffffffff16565b90505f611de885848b61439d9092919063ffffffff16565b90505f81838b611df89190615edf565b611e029190615edf565b905080851015611e29578481611e189190615edf565b82611e239190615f53565b91508490505b611e51611e34613a87565b8489611e409190615edf565b600c613a969092919063ffffffff16565b50508186611e5f9190615edf565b60065f60018c611e6f9190615f53565b81526020019081526020015f20819055508085611e8c9190615edf565b60065f8b81526020019081526020015f20819055505050505b50505b5f851115611f1e57611f1d60015f9054906101000a900473ffffffffffffffffffffffffffffffffffffffff16865f60029054906101000a900473ffffffffffffffffffffffffffffffffffffffff1673ffffffffffffffffffffffffffffffffffffffff1661447c9092919063ffffffff16565b5b7ff9d090c096f71cd1659861a9ce5b6f384bceb4e2fa4e4a19edf6489a9b8d56c7878787604051611f5193929190615fc5565b60405180910390a150505050611f65613523565b92915050565b5f611fd66001601a9054906101000a900465ffffffffffff1665ffffffffffff166001611f96611fdb565b611fa09190615f53565b611faa9190615f12565b600160149054906101000a900465ffffffffffff1665ffffffffffff16611fd19190615f53565b613564565b905090565b5f6001601a9054906101000a900465ffffffffffff16600160149054906101000a900465ffffffffffff1661200e613a87565b6120189190615ffa565b6120229190616060565b65ffffffffffff16905090565b6005602052805f5260405f205f915054906101000a900460ff1681565b5f600160149054906101000a900465ffffffffffff1665ffffffffffff168265ffffffffffff1610156120ab576040517fb7d0949700000000000000000000000000000000000000000000000000000000815260040160405180910390fd5b6001601a9054906101000a900465ffffffffffff16600160149054906101000a900465ffffffffffff16836120e09190615ffa565b6120ea9190616060565b65ffffffffffff169050919050565b5f6121026132b6565b5f73ffffffffffffffffffffffffffffffffffffffff168473ffffffffffffffffffffffffffffffffffffffff1603612167576040517f9c8d2cd200000000000000000000000000000000000000000000000000000000815260040160405180910390fd5b5f8383905090505f81036121a7576040517fedf3b93300000000000000000000000000000000000000000000000000000000815260040160405180910390fd5b5f5b818110156121eb576121d38585838181106121c7576121c6616090565b5b905060200201356144cf565b836121de9190615f53565b92508060010190506121a9565b5061223885835f60029054906101000a900473ffffffffffffffffffffffffffffffffffffffff1673ffffffffffffffffffffffffffffffffffffffff1661447c9092919063ffffffff16565b8473ffffffffffffffffffffffffffffffffffffffff163373ffffffffffffffffffffffffffffffffffffffff167f326b6aff1cd2fb1c8234de4f9dcfb9047c5c36eb9ef2eb34af5121e969a75d2786868660405161229993929190616135565b60405180910390a3506122aa613523565b9392505050565b5f6122c88383600c6137159092919063ffffffff16565b905092915050565b6122d86132b6565b600260149054906101000a900460ff161561231f576040517f1380833b00000000000000000000000000000000000000000000000000000000815260040160405180910390fd5b7f000000000000000000000000000000000000000000000000000000000000000073ffffffffffffffffffffffffffffffffffffffff166314887c58826040518263ffffffff1660e01b8152600401612378919061573d565b602060405180830381865afa158015612393573d5f5f3e3d5ffd5b505050506040513d601f19601f820116820180604052508101906123b79190616179565b6123ed576040517f9396be3400000000000000000000000000000000000000000000000000000000815260040160405180910390fd5b3073ffffffffffffffffffffffffffffffffffffffff168173ffffffffffffffffffffffffffffffffffffffff1663fbfa77cf6040518163ffffffff1660e01b8152600401602060405180830381865afa15801561244d573d5f5f3e3d5ffd5b505050506040513d601f19601f8201168201806040525081019061247191906161b8565b73ffffffffffffffffffffffffffffffffffffffff16146124be576040517fb9f0f17100000000000000000000000000000000000000000000000000000000815260040160405180910390fd5b8060025f6101000a81548173ffffffffffffffffffffffffffffffffffffffff021916908373ffffffffffffffffffffffffffffffffffffffff1602179055506001600260146101000a81548160ff0219169083151502179055508073ffffffffffffffffffffffffffffffffffffffff167fdb2160616f776a37b24808115554e79439bf26cccbbd4438190cc6d28e80ecd160405160405180910390a2612564613523565b50565b7f000000000000000000000000000000000000000000000000000000000000000081565b5f5f612595611fdb565b905060065f6001836125a79190615f53565b81526020019081526020015f205460065f8381526020019081526020015f20546125cf612e05565b6125d99190615f53565b6125e39190615f53565b91505090565b5f5f6125f361464e565b9050805f015f9054906101000a900473ffffffffffffffffffffffffffffffffffffffff1691505090565b5f5f61262861353d565b9050805f015f8581526020019081526020015f205f015f8473ffffffffffffffffffffffffffffffffffffffff1673ffffffffffffffffffffffffffffffffffffffff1681526020019081526020015f205f9054906101000a900460ff1691505092915050565b5f6126d5600e5f8473ffffffffffffffffffffffffffffffffffffffff1673ffffffffffffffffffffffffffffffffffffffff1681526020019081526020015f20614675565b9050919050565b5f5f8473ffffffffffffffffffffffffffffffffffffffff168484604051612705929190616211565b5f60405180830381855af49150503d805f811461273d576040519150601f19603f3d011682016040523d82523d5f602084013e612742565b606091505b50915091505f828260405160200161275b929190616289565b6040516020818303038152906040529050805181602001fd5b5f60019054906101000a900460ff1681565b5f5f1b81565b7f4a634bc14d77baf979756509ef4298c6f6318af357828612545267ee2eb7923381565b6127b86132b6565b7f9c56d972d63cbb4195b3c1484691dfc220fa96a4c47e7b6613bd82a022029e066127e281613811565b5f73ffffffffffffffffffffffffffffffffffffffff168373ffffffffffffffffffffffffffffffffffffffff1603612847576040517f6d187b2800000000000000000000000000000000000000000000000000000000815260040160405180910390fd5b81151560055f8573ffffffffffffffffffffffffffffffffffffffff1673ffffffffffffffffffffffffffffffffffffffff1681526020019081526020015f205f9054906101000a900460ff161515036128cd576040517fa741a04500000000000000000000000000000000000000000000000000000000815260040160405180910390fd5b8160055f8573ffffffffffffffffffffffffffffffffffffffff1673ffffffffffffffffffffffffffffffffffffffff1681526020019081526020015f205f6101000a81548160ff0219169083151502179055508273ffffffffffffffffffffffffffffffffffffffff167ff991b1ecfb5115cbb36a2b2e2240c058406d2acc2fcc6e9e2dc99d845ff70a6283604051612967919061558e565b60405180910390a250612978613523565b5050565b6008602052815f5260405f20602052805f5260405f205f91509150505481565b6009602052815f5260405f20602052805f5260405f205f915091509054906101000a900460ff1681565b6129ce6132b6565b600360149054906101000a900460ff1615612a15576040517f703fe2e500000000000000000000000000000000000000000000000000000000815260040160405180910390fd5b5f73ffffffffffffffffffffffffffffffffffffffff168173ffffffffffffffffffffffffffffffffffffffff1614612c28577f000000000000000000000000000000000000000000000000000000000000000073ffffffffffffffffffffffffffffffffffffffff166314887c58826040518263ffffffff1660e01b8152600401612aa1919061573d565b602060405180830381865afa158015612abc573d5f5f3e3d5ffd5b505050506040513d601f19601f82011682018060405250810190612ae09190616179565b612b16576040517fdabc4ad900000000000000000000000000000000000000000000000000000000815260040160405180910390fd5b3073ffffffffffffffffffffffffffffffffffffffff168173ffffffffffffffffffffffffffffffffffffffff1663fbfa77cf6040518163ffffffff1660e01b8152600401602060405180830381865afa158015612b76573d5f5f3e3d5ffd5b505050506040513d601f19601f82011682018060405250810190612b9a91906161b8565b73ffffffffffffffffffffffffffffffffffffffff1614612be7576040517ffcf8224400000000000000000000000000000000000000000000000000000000815260040160405180910390fd5b8060035f6101000a81548173ffffffffffffffffffffffffffffffffffffffff021916908373ffffffffffffffffffffffffffffffffffffffff1602179055505b6001600360146101000a81548160ff0219169083151502179055508073ffffffffffffffffffffffffffffffffffffffff167fe7e4c932e03abddfe20f83af42c33627e816115c7ec2b168441f65dc14bfc3ba60405160405180910390a2612c8e613523565b50565b5f612c9a6132b6565b5f73ffffffffffffffffffffffffffffffffffffffff168373ffffffffffffffffffffffffffffffffffffffff1603612cff576040517f9c8d2cd200000000000000000000000000000000000000000000000000000000815260040160405180910390fd5b612d08826144cf565b9050612d5683825f60029054906101000a900473ffffffffffffffffffffffffffffffffffffffff1673ffffffffffffffffffffffffffffffffffffffff1661447c9092919063ffffffff16565b8273ffffffffffffffffffffffffffffffffffffffff163373ffffffffffffffffffffffffffffffffffffffff167f865ca08d59f5cb456e85cd2f7ef63664ea4f73327414e9d8152c4158b0e946458484604051612db59291906156b2565b60405180910390a3612dc5613523565b92915050565b6007602052805f5260405f205f915090505481565b60035f9054906101000a900473ffffffffffffffffffffffffffffffffffffffff1681565b5f612e10600c614675565b905090565b612e1d6132b6565b7f4a634bc14d77baf979756509ef4298c6f6318af357828612545267ee2eb79233612e4781613811565b8160045403612e82576040517fa741a04500000000000000000000000000000000000000000000000000000000815260040160405180910390fd5b816004819055507f854df3eb95564502c8bc871ebdd15310ee26270f955f6c6bd8cea68e75045bc082604051612eb89190615a58565b60405180910390a150612ec9613523565b50565b5f612ed7600a614675565b905090565b5f5f612ee6611fdb565b9050612efe600182612ef89190615f53565b846131cb565b612f0882856131cb565b612f1185611aad565b612f1b9190615f53565b612f259190615f53565b915050919050565b60025f9054906101000a900473ffffffffffffffffffffffffffffffffffffffff1681565b612f5b82610ef9565b612f6481613811565b612f6e8383613924565b50505050565b5f60029054906101000a900473ffffffffffffffffffffffffffffffffffffffff1681565b7fbae4ee3de6c709ff9a002e774c5b78cb381560b219213c88ae0f1e207c03c02381565b60045481565b5f612fcc615466565b5f848490501115612fe9578383810190612fe69190616374565b90505b61301b612ffa8787845f01516110a3565b6130088784602001516122b1565b6130168885604001516117aa565b6132d8565b915050949350505050565b61302e61422f565b5f73ffffffffffffffffffffffffffffffffffffffff168173ffffffffffffffffffffffffffffffffffffffff160361309e575f6040517f1e4fbdf7000000000000000000000000000000000000000000000000000000008152600401613095919061573d565b60405180910390fd5b6130a7816142b6565b50565b5f5f6130b46132b6565b5f73ffffffffffffffffffffffffffffffffffffffff168473ffffffffffffffffffffffffffffffffffffffff1603613119576040517f044bc28000000000000000000000000000000000000000000000000000000000815260040160405180910390fd5b5f8303613152576040517fd8d8c4fa00000000000000000000000000000000000000000000000000000000815260040160405180910390fd5b61316b8361315e612ecc565b613166612e05565b6146f1565b91506131763361268f565b8211156131af576040517f42e4f46e00000000000000000000000000000000000000000000000000000000815260040160405180910390fd5b6131ba8484846132ee565b90506131c4613523565b9250929050565b5f61324560085f8581526020019081526020015f205f8473ffffffffffffffffffffffffffffffffffffffff1673ffffffffffffffffffffffffffffffffffffffff1681526020019081526020015f205460065f8681526020019081526020015f205460075f8781526020019081526020015f20546132d8565b905092915050565b5f7f01ffc9a7000000000000000000000000000000000000000000000000000000007bffffffffffffffffffffffffffffffffffffffffffffffffffffffff1916827bffffffffffffffffffffffffffffffffffffffffffffffffffffffff1916149050919050565b6132be614708565b60026132d06132cb614749565b614772565b5f0181905550565b5f6132e58484845f61477b565b90509392505050565b5f61335a6132fa613a87565b836133043361268f565b61330e9190615edf565b600e5f3373ffffffffffffffffffffffffffffffffffffffff1673ffffffffffffffffffffffffffffffffffffffff1681526020019081526020015f20613a969092919063ffffffff16565b505061338b613367613a87565b83613370612ecc565b61337a9190615edf565b600a613a969092919063ffffffff16565b50506133bc613398613a87565b846133a1612e05565b6133ab9190615edf565b600c613a969092919063ffffffff16565b50505f60016133c9611fdb565b6133d39190615f53565b90505f60065f8381526020019081526020015f205490505f60075f8481526020019081526020015f2054905061340a868284613a71565b935085826134189190615f53565b60065f8581526020019081526020015f208190555083816134399190615f53565b60075f8581526020019081526020015f20819055508360085f8581526020019081526020015f205f8973ffffffffffffffffffffffffffffffffffffffff1673ffffffffffffffffffffffffffffffffffffffff1681526020019081526020015f205f8282546134a99190615f53565b925050819055508673ffffffffffffffffffffffffffffffffffffffff163373ffffffffffffffffffffffffffffffffffffffff167febff2602b3f468259e1e99f613fed6691f3a6526effe6ef3e768ba7ae7a36c4f888888604051613511939291906163bb565b60405180910390a35050509392505050565b6001613535613530614749565b614772565b5f0181905550565b5f7f02dd7bc7dec4dceedda775e58dd541e08a116c6c53815c0bd028192f7b626800905090565b5f65ffffffffffff80168211156135b5576030826040517f6dfcc6500000000000000000000000000000000000000000000000000000000081526004016135ac92919061643e565b60405180910390fd5b819050919050565b5f6135c6613ba1565b5f015f9054906101000a900467ffffffffffffffff16905090565b825f6135eb613ba1565b9050805f0160089054906101000a900460ff168061363357508167ffffffffffffffff16815f015f9054906101000a900467ffffffffffffffff1667ffffffffffffffff1610155b1561366a576040517ff92ee8a900000000000000000000000000000000000000000000000000000000815260040160405180910390fd5b81815f015f6101000a81548167ffffffffffffffff021916908367ffffffffffffffff1602179055506001815f0160086101000a81548160ff0219169083151502179055506136bb868686866147c7565b5f815f0160086101000a81548160ff0219169083151502179055507fc7f505b2f371ae2175ee4913f4499e1f2633a7b5936321eed1cdaeb6115181d2826040516137059190615b6d565b60405180910390a1505050505050565b5f5f82510361372f5761372884846147cb565b905061380a565b5f82806020019051810190613744919061649e565b90505f6137518683614852565b90508465ffffffffffff16815f015165ffffffffffff160361377b5780602001519250505061380a565b8465ffffffffffff16815f015165ffffffffffff161080156137e8575060016137a3876148d9565b6137ad9190615edf565b8263ffffffff1614806137e757508465ffffffffffff166137da876001856137d591906164c9565b614852565b5f015165ffffffffffff16115b5b156137fb5780602001519250505061380a565b61380586866147cb565b925050505b9392505050565b6138228161381d61391d565b6148ec565b50565b5f5f61382f61353d565b905061383b848461261e565b613912576001815f015f8681526020019081526020015f205f015f8573ffffffffffffffffffffffffffffffffffffffff1673ffffffffffffffffffffffffffffffffffffffff1681526020019081526020015f205f6101000a81548160ff0219169083151502179055506138ae61391d565b73ffffffffffffffffffffffffffffffffffffffff168373ffffffffffffffffffffffffffffffffffffffff16857f2f8788117e7eff1d82e926ec794901d17c78024a50270940304540a733656f0d60405160405180910390a46001915050613917565b5f9150505b92915050565b5f33905090565b5f5f61392e61353d565b905061393a848461261e565b15613a11575f815f015f8681526020019081526020015f205f015f8573ffffffffffffffffffffffffffffffffffffffff1673ffffffffffffffffffffffffffffffffffffffff1681526020019081526020015f205f6101000a81548160ff0219169083151502179055506139ad61391d565b73ffffffffffffffffffffffffffffffffffffffff168373ffffffffffffffffffffffffffffffffffffffff16857ff6391f5c32d9c69d2a47ea670b442974b53935d1edc7fd64eb21e047a839171b60405160405180910390a46001915050613a16565b5f9150505b92915050565b613a2a84848484600161493d565b613a6b57836040517f5274afe7000000000000000000000000000000000000000000000000000000008152600401613a62919061573d565b60405180910390fd5b50505050565b5f613a7e8484845f6149ae565b90509392505050565b5f613a9142613564565b905090565b5f5f5f856001018054905003613acf57846001015f908060018154018082558091505060019003905f5260205f20015f90919091909150555b5f5f613adc875f016149fa565b50915091505f876001018054905090505f613af689614675565b9050838015613b1457508265ffffffffffff168865ffffffffffff16145b15613b4d578689600101600184613b2b9190615edf565b81548110613b3c57613b3b616090565b5b905f5260205f200181905550613b8f565b613b6488838b5f01614a899092919063ffffffff16565b50508860010187908060018154018082558091505060019003905f5260205f20015f90919091909150555b80879550955050505050935093915050565b5f5f613bab614aa4565b90508091505090565b613bbc614acd565b613bc581614b0d565b50565b5f81806020019051810190613bdd919061661d565b90505f73ffffffffffffffffffffffffffffffffffffffff16815f015173ffffffffffffffffffffffffffffffffffffffff1603613c47576040517fd1ef4cea00000000000000000000000000000000000000000000000000000000815260040160405180910390fd5b5f816040015165ffffffffffff1603613c8c576040517fd1ebf1e200000000000000000000000000000000000000000000000000000000815260040160405180910390fd5b5f73ffffffffffffffffffffffffffffffffffffffff168160c0015173ffffffffffffffffffffffffffffffffffffffff1603613f1e575f73ffffffffffffffffffffffffffffffffffffffff168160e0015173ffffffffffffffffffffffffffffffffffffffff1603613ddf57806060015115613d73575f73ffffffffffffffffffffffffffffffffffffffff1681610100015173ffffffffffffffffffffffffffffffffffffffff1603613d6e576040517f60f2151400000000000000000000000000000000000000000000000000000000815260040160405180910390fd5b613dde565b5f73ffffffffffffffffffffffffffffffffffffffff1681610100015173ffffffffffffffffffffffffffffffffffffffff1614613ddd576040517f60f2151400000000000000000000000000000000000000000000000000000000815260040160405180910390fd5b5b5b5f73ffffffffffffffffffffffffffffffffffffffff1681610120015173ffffffffffffffffffffffffffffffffffffffff1603613f1d57806080015115613ea0575f8160a00151148015613e6457505f73ffffffffffffffffffffffffffffffffffffffff1681610140015173ffffffffffffffffffffffffffffffffffffffff16145b15613e9b576040517f60f2151400000000000000000000000000000000000000000000000000000000815260040160405180910390fd5b613f1c565b5f8160a00151141580613ee457505f73ffffffffffffffffffffffffffffffffffffffff1681610140015173ffffffffffffffffffffffffffffffffffffffff1614155b15613f1b576040517f60f2151400000000000000000000000000000000000000000000000000000000815260040160405180910390fd5b5b5b5b805f01515f60026101000a81548173ffffffffffffffffffffffffffffffffffffffff021916908373ffffffffffffffffffffffffffffffffffffffff160217905550806020015160015f6101000a81548173ffffffffffffffffffffffffffffffffffffffff021916908373ffffffffffffffffffffffffffffffffffffffff160217905550613fad613a87565b600160146101000a81548165ffffffffffff021916908365ffffffffffff16021790555080604001516001601a6101000a81548165ffffffffffff021916908365ffffffffffff16021790555080606001515f5f6101000a81548160ff02191690831515021790555080608001515f60016101000a81548160ff0219169083151502179055508060a001516004819055505f73ffffffffffffffffffffffffffffffffffffffff168160c0015173ffffffffffffffffffffffffffffffffffffffff1614614087576140855f5f1b8260c00151613825565b505b5f73ffffffffffffffffffffffffffffffffffffffff168160e0015173ffffffffffffffffffffffffffffffffffffffff16146140ee576140ec7fbae4ee3de6c709ff9a002e774c5b78cb381560b219213c88ae0f1e207c03c0238260e00151613825565b505b5f73ffffffffffffffffffffffffffffffffffffffff1681610100015173ffffffffffffffffffffffffffffffffffffffff1614614157576141557f9c56d972d63cbb4195b3c1484691dfc220fa96a4c47e7b6613bd82a022029e06826101000151613825565b505b5f73ffffffffffffffffffffffffffffffffffffffff1681610120015173ffffffffffffffffffffffffffffffffffffffff16146141c0576141be7fc6aaadd7371d5e8f9ed6849dd66a66573a3ba37167d03f4352c9ba5693678fac826101200151613825565b505b5f73ffffffffffffffffffffffffffffffffffffffff1681610140015173ffffffffffffffffffffffffffffffffffffffff1614614229576142277f4a634bc14d77baf979756509ef4298c6f6318af357828612545267ee2eb79233826101400151613825565b505b50505050565b61423761391d565b73ffffffffffffffffffffffffffffffffffffffff166142556125e9565b73ffffffffffffffffffffffffffffffffffffffff16146142b45761427861391d565b6040517f118cdaa70000000000000000000000000000000000000000000000000000000081526004016142ab919061573d565b60405180910390fd5b565b5f6142bf61464e565b90505f815f015f9054906101000a900473ffffffffffffffffffffffffffffffffffffffff16905082825f015f6101000a81548173ffffffffffffffffffffffffffffffffffffffff021916908373ffffffffffffffffffffffffffffffffffffffff1602179055508273ffffffffffffffffffffffffffffffffffffffff168173ffffffffffffffffffffffffffffffffffffffff167f8be0079c531659141344cd1fd0a4f28419497f9722a3daafe3b4186f6b6457e060405160405180910390a3505050565b5f6143958284108484614b91565b905092915050565b5f5f5f6143aa8686614baa565b915091505f82036143cf578381816143c5576143c4616033565b5b0492505050614475565b8184116143ee576143ed6143e85f861460126011614b91565b614bc7565b5b5f8486880990508181118303925080820391505f855f038616905080860495508083049250600181825f0304019050808402831792505f600287600302189050808702600203810290508087026002038102905080870260020381029050808702600203810290508087026002038102905080870260020381029050808402955050505050505b9392505050565b6144898383836001614bd8565b6144ca57826040517f5274afe70000000000000000000000000000000000000000000000000000000081526004016144c1919061573d565b60405180910390fd5b505050565b5f6144d8611fdb565b8210614510576040517fd5b25b6300000000000000000000000000000000000000000000000000000000815260040160405180910390fd5b60095f8381526020019081526020015f205f3373ffffffffffffffffffffffffffffffffffffffff1673ffffffffffffffffffffffffffffffffffffffff1681526020019081526020015f205f9054906101000a900460ff16156145a0576040517f646cf55800000000000000000000000000000000000000000000000000000000815260040160405180910390fd5b6145aa82336131cb565b90505f81036145e5576040517fcd81797e00000000000000000000000000000000000000000000000000000000815260040160405180910390fd5b600160095f8481526020019081526020015f205f3373ffffffffffffffffffffffffffffffffffffffff1673ffffffffffffffffffffffffffffffffffffffff1681526020019081526020015f205f6101000a81548160ff021916908315150217905550919050565b5f7f9016d09d72d40fdae2fd8ceac6b6234c7706214fd39c1cd1e609a0528c199300905090565b5f5f614682835f01614c3a565b90505f8179ffffffffffffffffffffffffffffffffffffffffffffffffffff16116146ad575f6146e9565b826001018179ffffffffffffffffffffffffffffffffffffffffffffffffffff16815481106146df576146de616090565b5b905f5260205f2001545b915050919050565b5f6146ff84848460016149ae565b90509392505050565b614710614c9c565b15614747576040517f3ee5aeb500000000000000000000000000000000000000000000000000000000815260040160405180910390fd5b565b5f7f9b779b17422d0df92223018b32b4d1fa46e071723d6817e2486d003becc55f005f1b905090565b5f819050919050565b5f6147bd60018561478c9190615f53565b614794614cb8565b600a6147a09190616778565b856147ab9190615f53565b8488614cbf909392919063ffffffff16565b9050949350505050565b5f5ffd5b5f5f6147e283855f01614d0c90919063ffffffff16565b90505f8179ffffffffffffffffffffffffffffffffffffffffffffffffffff161161480d575f614849565b836001018179ffffffffffffffffffffffffffffffffffffffffffffffffffff168154811061483f5761483e616090565b5b905f5260205f2001545b91505092915050565b61485a615487565b5f61487083855f01614dfc90919063ffffffff16565b90506040518060400160405280825f015165ffffffffffff16815260200185600101836020015179ffffffffffffffffffffffffffffffffffffffffffffffffffff16815481106148c4576148c3616090565b5b905f5260205f20015481525091505092915050565b5f6148e5825f01614ecb565b9050919050565b6148f6828261261e565b6149395780826040517fe2517d3f0000000000000000000000000000000000000000000000000000000081526004016149309291906167c2565b60405180910390fd5b5050565b5f5f6323b872dd60e01b9050604051815f525f1960601c87166004525f1960601c86166024528460445260205f60645f5f8c5af1925060015f5114831661499b57838315161561498f573d5f823e3d81fd5b5f883b113d1516831692505b806040525f606052505095945050505050565b5f6149f06149ba614cb8565b600a6149c69190616778565b856149d19190615f53565b6001856149de9190615f53565b8488614cbf909392919063ffffffff16565b9050949350505050565b5f5f5f5f845f018054905090505f8103614a1d575f5f5f93509350935050614a82565b5f614a36865f01600184614a319190615edf565b614eda565b90506001815f015f9054906101000a900465ffffffffffff16825f0160069054906101000a900479ffffffffffffffffffffffffffffffffffffffffffffffffffff1694509450945050505b9193909250565b5f5f614a98855f018585614eec565b91509150935093915050565b5f7ff0c57e16840df040f15088dc2f81fe391c3923bec73e23a9662efc9c229c6a005f1b905090565b614ad56151e0565b614b0b576040517fd7e6bcf800000000000000000000000000000000000000000000000000000000815260040160405180910390fd5b565b614b15614acd565b5f73ffffffffffffffffffffffffffffffffffffffff168173ffffffffffffffffffffffffffffffffffffffff1603614b85575f6040517f1e4fbdf7000000000000000000000000000000000000000000000000000000008152600401614b7c919061573d565b60405180910390fd5b614b8e816142b6565b50565b5f614b9b846151fe565b82841802821890509392505050565b5f5f5f198385098385029150818110828203039250509250929050565b634e487b715f52806020526024601cfd5b5f5f63a9059cbb60e01b9050604051815f525f1960601c86166004528460245260205f60445f5f8b5af1925060015f51148316614c2c578383151615614c20573d5f823e3d81fd5b5f873b113d1516831692505b806040525050949350505050565b5f5f825f018054905090505f8114614c9257614c64835f01600183614c5f9190615edf565b614eda565b5f0160069054906101000a900479ffffffffffffffffffffffffffffffffffffffffffffffffffff16614c94565b5f5b915050919050565b5f6002614caf614caa614749565b614772565b5f015414905090565b5f5f905090565b5f614ced614ccc83615209565b8015614ce857505f8480614ce357614ce2616033565b5b868809115b6151fe565b614cf886868661439d565b614d029190615f53565b9050949350505050565b5f5f835f018054905090505f5f90505f8290506005831115614d90575f614d3284615236565b84614d3d9190615edf565b9050614d4b875f0182614eda565b5f015f9054906101000a900465ffffffffffff1665ffffffffffff168665ffffffffffff161015614d7e57809150614d8e565b600181614d8b9190615f53565b92505b505b5f614d9f875f018785856153d0565b90505f8114614dee57614dc0875f01600183614dbb9190615edf565b614eda565b5f0160069054906101000a900479ffffffffffffffffffffffffffffffffffffffffffffffffffff16614df0565b5f5b94505050505092915050565b614e046154a7565b825f018263ffffffff1681548110614e1f57614e1e616090565b5b905f5260205f20016040518060400160405290815f82015f9054906101000a900465ffffffffffff1665ffffffffffff1665ffffffffffff1681526020015f820160069054906101000a900479ffffffffffffffffffffffffffffffffffffffffffffffffffff1679ffffffffffffffffffffffffffffffffffffffffffffffffffff1679ffffffffffffffffffffffffffffffffffffffffffffffffffff1681525050905092915050565b5f815f01805490509050919050565b5f825f528160205f2001905092915050565b5f5f5f858054905090505f8111156150f8575f614f1587600184614f109190615edf565b614eda565b90505f815f015f9054906101000a900465ffffffffffff1690505f825f0160069054906101000a900479ffffffffffffffffffffffffffffffffffffffffffffffffffff1690508765ffffffffffff168265ffffffffffff161115614fa6576040517f2520601d00000000000000000000000000000000000000000000000000000000815260040160405180910390fd5b8765ffffffffffff168265ffffffffffff16036150105786835f0160066101000a81548179ffffffffffffffffffffffffffffffffffffffffffffffffffff021916908379ffffffffffffffffffffffffffffffffffffffffffffffffffff1602179055506150e9565b8860405180604001604052808a65ffffffffffff1681526020018979ffffffffffffffffffffffffffffffffffffffffffffffffffff16815250908060018154018082558091505060019003905f5260205f20015f909190919091505f820151815f015f6101000a81548165ffffffffffff021916908365ffffffffffff1602179055506020820151815f0160066101000a81548179ffffffffffffffffffffffffffffffffffffffffffffffffffff021916908379ffffffffffffffffffffffffffffffffffffffffffffffffffff16021790555050505b808795509550505050506151d8565b8560405180604001604052808765ffffffffffff1681526020018679ffffffffffffffffffffffffffffffffffffffffffffffffffff16815250908060018154018082558091505060019003905f5260205f20015f909190919091505f820151815f015f6101000a81548165ffffffffffff021916908365ffffffffffff1602179055506020820151815f0160066101000a81548179ffffffffffffffffffffffffffffffffffffffffffffffffffff021916908379ffffffffffffffffffffffffffffffffffffffffffffffffffff16021790555050505f8492509250505b935093915050565b5f6151e9613ba1565b5f0160089054906101000a900460ff16905090565b5f8115159050919050565b5f60016002836003811115615221576152206167e9565b5b61522b9190616816565b60ff16149050919050565b5f60018211615247578190506153cb565b5f8290505f60019050700100000000000000000000000000000000821061527757608082901c9150604081901b90505b68010000000000000000821061529657604082901c9150602081901b90505b64010000000082106152b157602082901c9150601081901b90505b6201000082106152ca57601082901c9150600881901b90505b61010082106152e257600882901c9150600481901b90505b601082106152f957600482901c9150600281901b90505b6004821061530957600181901b90505b600181600302901c9050600181858161532557615324616033565b5b048201901c9050600181858161533e5761533d616033565b5b048201901c9050600181858161535757615356616033565b5b048201901c905060018185816153705761536f616033565b5b048201901c9050600181858161538957615388616033565b5b048201901c905060018185816153a2576153a1616033565b5b048201901c90506153c48185816153bc576153bb616033565b5b0482116151fe565b8103925050505b919050565b5f5b8183101561543a575f6153e58484615445565b90508465ffffffffffff166153fa8783614eda565b5f015f9054906101000a900465ffffffffffff1665ffffffffffff16111561542457809250615434565b6001816154319190615f53565b93505b506153d2565b819050949350505050565b5f60028284188161545957615458616033565b5b0482841601905092915050565b60405180606001604052806060815260200160608152602001606081525090565b60405180604001604052805f65ffffffffffff1681526020015f81525090565b60405180604001604052805f65ffffffffffff1681526020015f79ffffffffffffffffffffffffffffffffffffffffffffffffffff1681525090565b5f604051905090565b5f5ffd5b5f5ffd5b5f7fffffffff0000000000000000000000000000000000000000000000000000000082169050919050565b615528816154f4565b8114615532575f5ffd5b50565b5f813590506155438161551f565b92915050565b5f6020828403121561555e5761555d6154ec565b5b5f61556b84828501615535565b91505092915050565b5f8115159050919050565b61558881615574565b82525050565b5f6020820190506155a15f83018461557f565b92915050565b5f819050919050565b6155b9816155a7565b82525050565b5f6020820190506155d25f8301846155b0565b92915050565b5f73ffffffffffffffffffffffffffffffffffffffff82169050919050565b5f615601826155d8565b9050919050565b615611816155f7565b811461561b575f5ffd5b50565b5f8135905061562c81615608565b92915050565b5f819050919050565b61564481615632565b811461564e575f5ffd5b50565b5f8135905061565f8161563b565b92915050565b5f5f6040838503121561567b5761567a6154ec565b5b5f6156888582860161561e565b925050602061569985828601615651565b9150509250929050565b6156ac81615632565b82525050565b5f6040820190506156c55f8301856156a3565b6156d260208301846156a3565b9392505050565b6156e2816155a7565b81146156ec575f5ffd5b50565b5f813590506156fd816156d9565b92915050565b5f60208284031215615718576157176154ec565b5b5f615725848285016156ef565b91505092915050565b615737816155f7565b82525050565b5f6020820190506157505f83018461572e565b92915050565b5f65ffffffffffff82169050919050565b61577081615756565b82525050565b5f6020820190506157895f830184615767565b92915050565b5f67ffffffffffffffff82169050919050565b6157ab8161578f565b81146157b5575f5ffd5b50565b5f813590506157c6816157a2565b92915050565b5f5ffd5b5f5ffd5b5f5ffd5b5f5f83601f8401126157ed576157ec6157cc565b5b8235905067ffffffffffffffff81111561580a576158096157d0565b5b602083019150836001820283011115615826576158256157d4565b5b9250929050565b5f5f5f60408486031215615844576158436154ec565b5b5f615851868287016157b8565b935050602084013567ffffffffffffffff811115615872576158716154f0565b5b61587e868287016157d8565b92509250509250925092565b61589381615756565b811461589d575f5ffd5b50565b5f813590506158ae8161588a565b92915050565b5f5ffd5b5f601f19601f8301169050919050565b7f4e487b71000000000000000000000000000000000000000000000000000000005f52604160045260245ffd5b6158fe826158b8565b810181811067ffffffffffffffff8211171561591d5761591c6158c8565b5b80604052505050565b5f61592f6154e3565b905061593b82826158f5565b919050565b5f67ffffffffffffffff82111561595a576159596158c8565b5b615963826158b8565b9050602081019050919050565b828183375f83830152505050565b5f61599061598b84615940565b615926565b9050828152602081018484840111156159ac576159ab6158b4565b5b6159b7848285615970565b509392505050565b5f82601f8301126159d3576159d26157cc565b5b81356159e384826020860161597e565b91505092915050565b5f5f5f60608486031215615a0357615a026154ec565b5b5f615a108682870161561e565b9350506020615a21868287016158a0565b925050604084013567ffffffffffffffff811115615a4257615a416154f0565b5b615a4e868287016159bf565b9150509250925092565b5f602082019050615a6b5f8301846156a3565b92915050565b5f5f60408385031215615a8757615a866154ec565b5b5f615a94858286016156ef565b9250506020615aa58582860161561e565b9150509250929050565b615ab881615574565b8114615ac2575f5ffd5b50565b5f81359050615ad381615aaf565b92915050565b5f60208284031215615aee57615aed6154ec565b5b5f615afb84828501615ac5565b91505092915050565b5f5f60408385031215615b1a57615b196154ec565b5b5f615b27858286016158a0565b925050602083013567ffffffffffffffff811115615b4857615b476154f0565b5b615b54858286016159bf565b9150509250929050565b615b678161578f565b82525050565b5f602082019050615b805f830184615b5e565b92915050565b5f5f5f5f60608587031215615b9e57615b9d6154ec565b5b5f615bab878288016157b8565b9450506020615bbc8782880161561e565b935050604085013567ffffffffffffffff811115615bdd57615bdc6154f0565b5b615be9878288016157d8565b925092505092959194509250565b5f60208284031215615c0c57615c0b6154ec565b5b5f615c198482850161561e565b91505092915050565b5f60208284031215615c3757615c366154ec565b5b5f615c4484828501615651565b91505092915050565b5f5f60408385031215615c6357615c626154ec565b5b5f615c7085828601615651565b9250506020615c81858286016158a0565b9150509250929050565b5f60208284031215615ca057615c9f6154ec565b5b5f615cad848285016158a0565b91505092915050565b5f5f83601f840112615ccb57615cca6157cc565b5b8235905067ffffffffffffffff811115615ce857615ce76157d0565b5b602083019150836020820283011115615d0457615d036157d4565b5b9250929050565b5f5f5f60408486031215615d2257615d216154ec565b5b5f615d2f8682870161561e565b935050602084013567ffffffffffffffff811115615d5057615d4f6154f0565b5b615d5c86828701615cb6565b92509250509250925092565b5f5f5f60408486031215615d7f57615d7e6154ec565b5b5f615d8c8682870161561e565b935050602084013567ffffffffffffffff811115615dad57615dac6154f0565b5b615db9868287016157d8565b92509250509250925092565b5f5f60408385031215615ddb57615dda6154ec565b5b5f615de88582860161561e565b9250506020615df985828601615ac5565b9150509250929050565b5f5f60408385031215615e1957615e186154ec565b5b5f615e2685828601615651565b9250506020615e378582860161561e565b9150509250929050565b5f5f5f5f60608587031215615e5957615e586154ec565b5b5f615e668782880161561e565b9450506020615e77878288016158a0565b935050604085013567ffffffffffffffff811115615e9857615e976154f0565b5b615ea4878288016157d8565b925092505092959194509250565b7f4e487b71000000000000000000000000000000000000000000000000000000005f52601160045260245ffd5b5f615ee982615632565b9150615ef483615632565b9250828203905081811115615f0c57615f0b615eb2565b5b92915050565b5f615f1c82615632565b9150615f2783615632565b9250828202615f3581615632565b91508282048414831517615f4c57615f4b615eb2565b5b5092915050565b5f615f5d82615632565b9150615f6883615632565b9250828201905080821115615f8057615f7f615eb2565b5b92915050565b5f81519050615f948161563b565b92915050565b5f60208284031215615faf57615fae6154ec565b5b5f615fbc84828501615f86565b91505092915050565b5f606082019050615fd85f8301866156a3565b615fe56020830185615767565b615ff260408301846156a3565b949350505050565b5f61600482615756565b915061600f83615756565b9250828203905065ffffffffffff81111561602d5761602c615eb2565b5b92915050565b7f4e487b71000000000000000000000000000000000000000000000000000000005f52601260045260245ffd5b5f61606a82615756565b915061607583615756565b92508261608557616084616033565b5b828204905092915050565b7f4e487b71000000000000000000000000000000000000000000000000000000005f52603260045260245ffd5b5f82825260208201905092915050565b5f5ffd5b82818337505050565b5f6160e583856160bd565b93507f07ffffffffffffffffffffffffffffffffffffffffffffffffffffffffffffff831115616118576161176160cd565b5b6020830292506161298385846160d1565b82840190509392505050565b5f6040820190508181035f83015261614e8185876160da565b905061615d60208301846156a3565b949350505050565b5f8151905061617381615aaf565b92915050565b5f6020828403121561618e5761618d6154ec565b5b5f61619b84828501616165565b91505092915050565b5f815190506161b281615608565b92915050565b5f602082840312156161cd576161cc6154ec565b5b5f6161da848285016161a4565b91505092915050565b5f81905092915050565b5f6161f883856161e3565b9350616205838584615970565b82840190509392505050565b5f61621d8284866161ed565b91508190509392505050565b5f81519050919050565b5f82825260208201905092915050565b8281835e5f83830152505050565b5f61625b82616229565b6162658185616233565b9350616275818560208601616243565b61627e816158b8565b840191505092915050565b5f60408201905061629c5f83018561557f565b81810360208301526162ae8184616251565b90509392505050565b5f5ffd5b5f5ffd5b5f606082840312156162d4576162d36162b7565b5b6162de6060615926565b90505f82013567ffffffffffffffff8111156162fd576162fc6162bb565b5b616309848285016159bf565b5f83015250602082013567ffffffffffffffff81111561632c5761632b6162bb565b5b616338848285016159bf565b602083015250604082013567ffffffffffffffff81111561635c5761635b6162bb565b5b616368848285016159bf565b60408301525092915050565b5f60208284031215616389576163886154ec565b5b5f82013567ffffffffffffffff8111156163a6576163a56154f0565b5b6163b2848285016162bf565b91505092915050565b5f6060820190506163ce5f8301866156a3565b6163db60208301856156a3565b6163e860408301846156a3565b949350505050565b5f819050919050565b5f60ff82169050919050565b5f819050919050565b5f61642861642361641e846163f0565b616405565b6163f9565b9050919050565b6164388161640e565b82525050565b5f6040820190506164515f83018561642f565b61645e60208301846156a3565b9392505050565b5f63ffffffff82169050919050565b61647d81616465565b8114616487575f5ffd5b50565b5f8151905061649881616474565b92915050565b5f602082840312156164b3576164b26154ec565b5b5f6164c08482850161648a565b91505092915050565b5f6164d382616465565b91506164de83616465565b9250828201905063ffffffff8111156164fa576164f9615eb2565b5b92915050565b5f8151905061650e8161588a565b92915050565b5f610160828403121561652a576165296162b7565b5b616535610160615926565b90505f616544848285016161a4565b5f830152506020616557848285016161a4565b602083015250604061656b84828501616500565b604083015250606061657f84828501616165565b606083015250608061659384828501616165565b60808301525060a06165a784828501615f86565b60a08301525060c06165bb848285016161a4565b60c08301525060e06165cf848285016161a4565b60e0830152506101006165e4848285016161a4565b610100830152506101206165fa848285016161a4565b61012083015250610140616610848285016161a4565b6101408301525092915050565b5f6101608284031215616633576166326154ec565b5b5f61664084828501616514565b91505092915050565b5f8160011c9050919050565b5f5f8291508390505b600185111561669e5780860481111561667a57616679615eb2565b5b60018516156166895780820291505b808102905061669785616649565b945061665e565b94509492505050565b5f826166b65760019050616771565b816166c3575f9050616771565b81600181146166d957600281146166e357616712565b6001915050616771565b60ff8411156166f5576166f4615eb2565b5b8360020a91508482111561670c5761670b615eb2565b5b50616771565b5060208310610133831016604e8410600b84101617156167475782820a90508381111561674257616741615eb2565b5b616771565b6167548484846001616655565b9250905081840481111561676b5761676a615eb2565b5b81810290505b9392505050565b5f61678282615632565b915061678d836163f9565b92506167ba7fffffffffffffffffffffffffffffffffffffffffffffffffffffffffffffffff84846166a7565b905092915050565b5f6040820190506167d55f83018561572e565b6167e260208301846155b0565b9392505050565b7f4e487b71000000000000000000000000000000000000000000000000000000005f52602160045260245ffd5b5f616820826163f9565b915061682b836163f9565b92508261683b5761683a616033565b5b82820690509291505056fea2646970667358221220e782f670a4b0d82cfba057b665ea352908d1e87d5b098c2453954ba1d204a66864736f6c63430008230033","linkReferences":{}},"methodIdentifiers":{"DEFAULT_ADMIN_ROLE()":"a217fddf","DELEGATOR_FACTORY()":"6da3e06d","DEPOSITOR_WHITELIST_ROLE()":"1b66c9e1","DEPOSIT_LIMIT_SET_ROLE()":"a21a1df9","DEPOSIT_WHITELIST_SET_ROLE()":"db388715","FACTORY()":"2dd31000","IS_DEPOSIT_LIMIT_SET_ROLE()":"1415519b","SLASHER_FACTORY()":"87df0788","activeBalanceOf(address)":"59f769a9","activeBalanceOfAt(address,uint48,bytes)":"efb559d6","activeShares()":"bfefcd7b","activeSharesAt(uint48,bytes)":"50f22068","activeSharesOf(address)":"9d66201b","activeSharesOfAt(address,uint48,bytes)":"2d73c69c","activeStake()":"bd49c35f","activeStakeAt(uint48,bytes)":"810da75d","burner()":"27810b6e","claim(address,uint256)":"aad3ec96","claimBatch(address,uint256[])":"7c04c80a","collateral()":"d8dfeb45","currentEpoch()":"76671808","currentEpochStart()":"61a8c8c4","delegator()":"ce9b7930","deposit(address,uint256)":"47e7ef24","depositLimit()":"ecf70858","depositWhitelist()":"48d3b775","epochAt(uint48)":"7953b33b","epochDuration()":"4ff0876a","epochDurationInit()":"46361671","getRoleAdmin(bytes32)":"248a9ca3","grantRole(bytes32,address)":"2f2ff15d","hasRole(bytes32,address)":"91d14854","initialize(uint64,address,bytes)":"57ec83cc","isDelegatorInitialized()":"50861adc","isDepositLimit()":"a1b12202","isDepositorWhitelisted(address)":"794b15b7","isInitialized()":"392e53cd","isSlasherInitialized()":"6ec1e3f8","isWithdrawalsClaimed(uint256,address)":"a5d03223","migrate(uint64,bytes)":"2abe3048","nextEpochStart()":"73790ab3","onSlash(uint256,uint48)":"7278e31c","owner()":"8da5cb5b","previousEpochStart()":"281f5752","redeem(address,uint256)":"1e9a6950","renounceOwnership()":"715018a6","renounceRole(bytes32,address)":"36568abe","revokeRole(bytes32,address)":"d547741f","setDelegator(address)":"83cd9cc3","setDepositLimit(uint256)":"bdc8144b","setDepositWhitelist(bool)":"4105a7dd","setDepositorWhitelistStatus(address,bool)":"a2861466","setIsDepositLimit(bool)":"5346e34f","setSlasher(address)":"aabc2496","slashableBalanceOf(address)":"c31e8dd7","slasher()":"b1344271","staticDelegateCall(address,bytes)":"9f86fd85","supportsInterface(bytes4)":"01ffc9a7","totalStake()":"8b0e9f3f","transferOwnership(address)":"f2fde38b","version()":"54fd4d50","withdraw(address,uint256)":"f3fef3a3","withdrawalShares(uint256)":"afba70ad","withdrawalSharesOf(uint256,address)":"a3b54172","withdrawals(uint256)":"5cc07076","withdrawalsOf(uint256,address)":"f5e7ee0f"},"id":149}