{"abi":[{"type":"constructor","inputs":[{"name":"owner_","type":"address","internalType":"address"}],"stateMutability":"nonpayable"},{"type":"function","name":"blacklist","inputs":[{"name":"version","type":"uint64","internalType":"uint64"}],"outputs":[],"stateMutability":"nonpayable"},{"type":"function","name":"blacklisted","inputs":[{"name":"version","type":"uint64","internalType":"uint64"}],"outputs":[{"name":"value","type":"bool","internalType":"bool"}],"stateMutability":"view"},{"type":"function","name":"create","inputs":[{"name":"version","type":"uint64","internalType":"uint64"},{"name":"owner_","type":"address","internalType":"address"},{"name":"data","type":"bytes","internalType":"bytes"}],"outputs":[{"name":"entity_","type":"address","internalType":"address"}],"stateMutability":"nonpayable"},{"type":"function","name":"entity","inputs":[{"name":"index","type":"uint256","internalType":"uint256"}],"outputs":[{"name":"","type":"address","internalType":"address"}],"stateMutability":"view"},{"type":"function","name":"implementation","inputs":[{"name":"version","type":"uint64","internalType":"uint64"}],"outputs":[{"name":"","type":"address","internalType":"address"}],"stateMutability":"view"},{"type":"function","name":"isEntity","inputs":[{"name":"entity_","type":"address","internalType":"address"}],"outputs":[{"name":"","type":"bool","internalType":"bool"}],"stateMutability":"view"},{"type":"function","name":"lastVersion","inputs":[],"outputs":[{"name":"","type":"uint64","internalType":"uint64"}],"stateMutability":"view"},{"type":"function","name":"migrate","inputs":[{"name":"entity_","type":"address","internalType":"address"},{"name":"newVersion","type":"uint64","internalType":"uint64"},{"name":"data","type":"bytes","internalType":"bytes"}],"outputs":[],"stateMutability":"nonpayable"},{"type":"function","name":"owner","inputs":[],"outputs":[{"name":"","type":"address","internalType":"address"}],"stateMutability":"view"},{"type":"function","name":"renounceOwnership","inputs":[],"outputs":[],"stateMutability":"nonpayable"},{"type":"function","name":"totalEntities","inputs":[],"outputs":[{"name":"","type":"uint256","internalType":"uint256"}],"stateMutability":"view"},{"type":"function","name":"transferOwnership","inputs":[{"name":"newOwner","type":"address","internalType":"address"}],"outputs":[],"stateMutability":"nonpayable"},{"type":"function","name":"whitelist","inputs":[{"name":"implementation_","type":"address","internalType":"address"}],"outputs":[],"stateMutability":"nonpayable"},{"type":"event","name":"AddEntity","inputs":[{"name":"entity","type":"address","indexed":true,"internalType":"address"}],"anonymous":false},{"type":"event","name":"Blacklist","inputs":[{"name":"version","type":"uint64","indexed":true,"internalType":"uint64"}],"anonymous":false},{"type":"event","name":"Migrate","inputs":[{"name":"entity","type":"address","indexed":true,"internalType":"address"},{"name":"newVersion","type":"uint64","indexed":false,"internalType":"uint64"}],"anonymous":false},{"type":"event","name":"OwnershipTransferred","inputs":[{"name":"previousOwner","type":"address","indexed":true,"internalType":"address"},{"name":"newOwner","type":"address","indexed":true,"internalType":"address"}],"anonymous":false},{"type":"event","name":"Whitelist","inputs":[{"name":"implementation","type":"address","indexed":true,"internalType":"address"}],"anonymous":false},{"type":"error","name":"AlreadyBlacklisted","inputs":[]},{"type":"error","name":"AlreadyWhitelisted","inputs":[]},{"type":"error","name":"EntityNotExist","inputs":[]},{"type":"error","name":"InvalidImplementation","inputs":[]},{"type":"error","name":"InvalidVersion","inputs":[]},{"type":"error","name":"NotOwner","inputs":[]},{"type":"error","name":"OldVersion","inputs":[]},{"type":"error","name":"OwnableInvalidOwner","inputs":[{"name":"owner","type":"address","internalType":"address"}]},{"type":"error","name":"OwnableUnauthorizedAccount","inputs":[{"name":"account","type":"address","internalType":"address"}]}],"bytecode":{"object":"0x608060405234801561000f575f5ffd5b50604051612429380380612429833981810160405281019061003191906101db565b80805f73ffffffffffffffffffffffffffffffffffffffff168173ffffffffffffffffffffffffffffffffffffffff16036100a3575f6040517f1e4fbdf700000000000000000000000000000000000000000000000000000000815260040161009a9190610215565b60405180910390fd5b6100b2816100ba60201b60201c565b50505061022e565b5f60025f9054906101000a900473ffffffffffffffffffffffffffffffffffffffff1690508160025f6101000a81548173ffffffffffffffffffffffffffffffffffffffff021916908373ffffffffffffffffffffffffffffffffffffffff1602179055508173ffffffffffffffffffffffffffffffffffffffff168173ffffffffffffffffffffffffffffffffffffffff167f8be0079c531659141344cd1fd0a4f28419497f9722a3daafe3b4186f6b6457e060405160405180910390a35050565b5f5ffd5b5f73ffffffffffffffffffffffffffffffffffffffff82169050919050565b5f6101aa82610181565b9050919050565b6101ba816101a0565b81146101c4575f5ffd5b50565b5f815190506101d5816101b1565b92915050565b5f602082840312156101f0576101ef61017d565b5b5f6101fd848285016101c7565b91505092915050565b61020f816101a0565b82525050565b5f6020820190506102285f830184610206565b92915050565b6121ee8061023b5f395ff3fe608060405234801561000f575f5ffd5b50600436106100cd575f3560e01c80638da5cb5b1161008a578063b572a96611610064578063b572a966146101fd578063b6caa11914610219578063f2fde38b14610249578063f966160214610265576100cd565b80638da5cb5b146101935780639b19251a146101b1578063b42ba2a2146101cd576100cd565b806314887c58146100d15780633ac049111461010157806358336662146101315780635cd8b15e1461014d57806364dfea061461016b578063715018a614610189575b5f5ffd5b6100eb60048036038101906100e69190610e52565b610295565b6040516100f89190610e97565b60405180910390f35b61011b60048036038101906101169190610f4e565b6102b0565b6040516101289190610fce565b60405180910390f35b61014b60048036038101906101469190610fe7565b610394565b005b610155610646565b6040516101629190611070565b60405180910390f35b610173610655565b6040516101809190611098565b60405180910390f35b610191610665565b005b61019b610678565b6040516101a89190610fce565b60405180910390f35b6101cb60048036038101906101c69190610e52565b6106a0565b005b6101e760048036038101906101e291906110db565b610809565b6040516101f49190610fce565b60405180910390f35b61021760048036038101906102129190611106565b610824565b005b610233600480360381019061022e9190611106565b610977565b6040516102409190610e97565b60405180910390f35b610263600480360381019061025e9190610e52565b610994565b005b61027f600480360381019061027a9190611106565b610a18565b60405161028c9190610fce565b60405180910390f35b5f6102a9825f610ab590919063ffffffff16565b9050919050565b5f6102b9610646565b858585856040516020016102d195949392919061118b565b604051602081830303815290604052805190602001206102f086610a18565b8686868660405160240161030794939291906111d7565b6040516020818303038152906040526357ec83cc60e01b6020820180517bffffffffffffffffffffffffffffffffffffffffffffffffffffffff838183161783525050505060405161035890610de3565b610363929190611265565b8190604051809103905ff5905080158015610380573d5f5f3e3d5ffd5b50905061038c81610ae2565b949350505050565b8361039e81610b3c565b8473ffffffffffffffffffffffffffffffffffffffff16638da5cb5b6040518163ffffffff1660e01b8152600401602060405180830381865afa1580156103e7573d5f5f3e3d5ffd5b505050506040513d601f19601f8201168201806040525081019061040b91906112a7565b73ffffffffffffffffffffffffffffffffffffffff163373ffffffffffffffffffffffffffffffffffffffff161461046f576040517f30cd747100000000000000000000000000000000000000000000000000000000815260040160405180910390fd5b8473ffffffffffffffffffffffffffffffffffffffff166354fd4d506040518163ffffffff1660e01b8152600401602060405180830381865afa1580156104b8573d5f5f3e3d5ffd5b505050506040513d601f19601f820116820180604052508101906104dc91906112e6565b67ffffffffffffffff168467ffffffffffffffff1611610528576040517f384ebd9000000000000000000000000000000000000000000000000000000000815260040160405180910390fd5b8473ffffffffffffffffffffffffffffffffffffffff16634f1ef28661054d86610a18565b86868660405160240161056293929190611311565b604051602081830303815290604052632abe304860e01b6020820180517bffffffffffffffffffffffffffffffffffffffffffffffffffffffff83818316178352505050506040518363ffffffff1660e01b81526004016105c4929190611265565b5f604051808303815f87803b1580156105db575f5ffd5b505af11580156105ed573d5f5f3e3d5ffd5b505050508473ffffffffffffffffffffffffffffffffffffffff167fb91c18bf7dbfdff96560fb98128531c4c6187079fe0bd7f24a81f54ea87f35a7856040516106379190611098565b60405180910390a25050505050565b5f6106505f610b7e565b905090565b5f6106606004610b7e565b905090565b61066d610b91565b6106765f610c18565b565b5f60025f9054906101000a900473ffffffffffffffffffffffffffffffffffffffff16905090565b6106a8610b91565b3073ffffffffffffffffffffffffffffffffffffffff168173ffffffffffffffffffffffffffffffffffffffff16632dd310006040518163ffffffff1660e01b8152600401602060405180830381865afa158015610708573d5f5f3e3d5ffd5b505050506040513d601f19601f8201168201806040525081019061072c91906112a7565b73ffffffffffffffffffffffffffffffffffffffff1614610779576040517f68155f9a00000000000000000000000000000000000000000000000000000000815260040160405180910390fd5b61078d816004610cdb90919063ffffffff16565b6107c3576040517fb73e95e100000000000000000000000000000000000000000000000000000000815260040160405180910390fd5b8073ffffffffffffffffffffffffffffffffffffffff167feb73900b98b6a3e2b8b01708fe544760cf570d21e7fbe5225f24e48b5b2b432e60405160405180910390a250565b5f61081d825f610d0890919063ffffffff16565b9050919050565b61082c610b91565b805f8167ffffffffffffffff16148061085f5750610848610655565b67ffffffffffffffff168167ffffffffffffffff16115b15610896576040517fa9146eeb00000000000000000000000000000000000000000000000000000000815260040160405180910390fd5b60035f8367ffffffffffffffff1667ffffffffffffffff1681526020019081526020015f205f9054906101000a900460ff16156108ff576040517ff53de75f00000000000000000000000000000000000000000000000000000000815260040160405180910390fd5b600160035f8467ffffffffffffffff1667ffffffffffffffff1681526020019081526020015f205f6101000a81548160ff0219169083151502179055508167ffffffffffffffff167ffc8245c2838846b295ae66fbe0d08e20c799b737c93b56f7b209df2e5fa2d45860405160405180910390a25050565b6003602052805f5260405f205f915054906101000a900460ff1681565b61099c610b91565b5f73ffffffffffffffffffffffffffffffffffffffff168173ffffffffffffffffffffffffffffffffffffffff1603610a0c575f6040517f1e4fbdf7000000000000000000000000000000000000000000000000000000008152600401610a039190610fce565b60405180910390fd5b610a1581610c18565b50565b5f815f8167ffffffffffffffff161480610a4c5750610a35610655565b67ffffffffffffffff168167ffffffffffffffff16115b15610a83576040517fa9146eeb00000000000000000000000000000000000000000000000000000000815260040160405180910390fd5b610aad600184610a93919061136e565b67ffffffffffffffff166004610d0890919063ffffffff16565b915050919050565b5f610ada835f018373ffffffffffffffffffffffffffffffffffffffff165f1b610d1f565b905092915050565b610af5815f610cdb90919063ffffffff16565b508073ffffffffffffffffffffffffffffffffffffffff167fb919910dcefbf753bfd926ab3b1d3f85d877190c3d01ba1bd585047b99b99f0b60405160405180910390a250565b610b4581610295565b610b7b576040517fe3fd10ff00000000000000000000000000000000000000000000000000000000815260040160405180910390fd5b50565b5f610b8a825f01610d3f565b9050919050565b610b99610d4e565b73ffffffffffffffffffffffffffffffffffffffff16610bb7610678565b73ffffffffffffffffffffffffffffffffffffffff1614610c1657610bda610d4e565b6040517f118cdaa7000000000000000000000000000000000000000000000000000000008152600401610c0d9190610fce565b60405180910390fd5b565b5f60025f9054906101000a900473ffffffffffffffffffffffffffffffffffffffff1690508160025f6101000a81548173ffffffffffffffffffffffffffffffffffffffff021916908373ffffffffffffffffffffffffffffffffffffffff1602179055508173ffffffffffffffffffffffffffffffffffffffff168173ffffffffffffffffffffffffffffffffffffffff167f8be0079c531659141344cd1fd0a4f28419497f9722a3daafe3b4186f6b6457e060405160405180910390a35050565b5f610d00835f018373ffffffffffffffffffffffffffffffffffffffff165f1b610d55565b905092915050565b5f610d15835f0183610dbc565b5f1c905092915050565b5f5f836001015f8481526020019081526020015f20541415905092915050565b5f815f01805490509050919050565b5f33905090565b5f610d608383610d1f565b610db257825f0182908060018154018082558091505060019003905f5260205f20015f9091909190915055825f0180549050836001015f8481526020019081526020015f208190555060019050610db6565b5f90505b92915050565b5f825f018281548110610dd257610dd16113a9565b5b905f5260205f200154905092915050565b610de2806113d783390190565b5f5ffd5b5f5ffd5b5f73ffffffffffffffffffffffffffffffffffffffff82169050919050565b5f610e2182610df8565b9050919050565b610e3181610e17565b8114610e3b575f5ffd5b50565b5f81359050610e4c81610e28565b92915050565b5f60208284031215610e6757610e66610df0565b5b5f610e7484828501610e3e565b91505092915050565b5f8115159050919050565b610e9181610e7d565b82525050565b5f602082019050610eaa5f830184610e88565b92915050565b5f67ffffffffffffffff82169050919050565b610ecc81610eb0565b8114610ed6575f5ffd5b50565b5f81359050610ee781610ec3565b92915050565b5f5ffd5b5f5ffd5b5f5ffd5b5f5f83601f840112610f0e57610f0d610eed565b5b8235905067ffffffffffffffff811115610f2b57610f2a610ef1565b5b602083019150836001820283011115610f4757610f46610ef5565b5b9250929050565b5f5f5f5f60608587031215610f6657610f65610df0565b5b5f610f7387828801610ed9565b9450506020610f8487828801610e3e565b935050604085013567ffffffffffffffff811115610fa557610fa4610df4565b5b610fb187828801610ef9565b925092505092959194509250565b610fc881610e17565b82525050565b5f602082019050610fe15f830184610fbf565b92915050565b5f5f5f5f60608587031215610fff57610ffe610df0565b5b5f61100c87828801610e3e565b945050602061101d87828801610ed9565b935050604085013567ffffffffffffffff81111561103e5761103d610df4565b5b61104a87828801610ef9565b925092505092959194509250565b5f819050919050565b61106a81611058565b82525050565b5f6020820190506110835f830184611061565b92915050565b61109281610eb0565b82525050565b5f6020820190506110ab5f830184611089565b92915050565b6110ba81611058565b81146110c4575f5ffd5b50565b5f813590506110d5816110b1565b92915050565b5f602082840312156110f0576110ef610df0565b5b5f6110fd848285016110c7565b91505092915050565b5f6020828403121561111b5761111a610df0565b5b5f61112884828501610ed9565b91505092915050565b5f82825260208201905092915050565b828183375f83830152505050565b5f601f19601f8301169050919050565b5f61116a8385611131565b9350611177838584611141565b6111808361114f565b840190509392505050565b5f60808201905061119e5f830188611061565b6111ab6020830187611089565b6111b86040830186610fbf565b81810360608301526111cb81848661115f565b90509695505050505050565b5f6060820190506111ea5f830187611089565b6111f76020830186610fbf565b818103604083015261120a81848661115f565b905095945050505050565b5f81519050919050565b8281835e5f83830152505050565b5f61123782611215565b6112418185611131565b935061125181856020860161121f565b61125a8161114f565b840191505092915050565b5f6040820190506112785f830185610fbf565b818103602083015261128a818461122d565b90509392505050565b5f815190506112a181610e28565b92915050565b5f602082840312156112bc576112bb610df0565b5b5f6112c984828501611293565b91505092915050565b5f815190506112e081610ec3565b92915050565b5f602082840312156112fb576112fa610df0565b5b5f611308848285016112d2565b91505092915050565b5f6040820190506113245f830186611089565b818103602083015261133781848661115f565b9050949350505050565b7f4e487b71000000000000000000000000000000000000000000000000000000005f52601160045260245ffd5b5f61137882610eb0565b915061138383610eb0565b9250828203905067ffffffffffffffff8111156113a3576113a2611341565b5b92915050565b7f4e487b71000000000000000000000000000000000000000000000000000000005f52603260045260245ffdfe60a060405234801561000f575f5ffd5b50604051610de2380380610de283398181016040528101906100319190610724565b81816100416100ee60201b60201c565b15801561004e57505f8151145b15610085576040517fc28a273c00000000000000000000000000000000000000000000000000000000815260040160405180910390fd5b61009582826100f560201b60201c565b50503373ffffffffffffffffffffffffffffffffffffffff1660808173ffffffffffffffffffffffffffffffffffffffff16815250506100e76100dc61017960201b60201c565b61018260201b60201c565b50506107cd565b5f5f905090565b610104826101da60201b60201c565b8173ffffffffffffffffffffffffffffffffffffffff167fbc7cd75a20ee27fd9adebab32041f755214dbc6bffa90cc0225b39da2e5c2d3b60405160405180910390a25f815111156101665761016082826102a960201b60201c565b50610175565b6101746103b860201b60201c565b5b5050565b5f608051905090565b7f7e644d79422f17c01e4894b5f4f588d331ebfa28653d42ae832dc59e38c9798f6101b16103f460201b60201c565b826040516101c092919061078d565b60405180910390a16101d78161044d60201b60201c565b50565b5f8173ffffffffffffffffffffffffffffffffffffffff163b0361023557806040517f4c9c8ce300000000000000000000000000000000000000000000000000000000815260040161022c91906107b4565b60405180910390fd5b806102677f360894a13ba1a3210667c828492db98dca3e2076cc3735a920a3ca505d382bbc5f1b61053160201b60201c565b5f015f6101000a81548173ffffffffffffffffffffffffffffffffffffffff021916908373ffffffffffffffffffffffffffffffffffffffff16021790555050565b60605f6102bc848461053a60201b60201c565b90508080156102f857505f6102d561054e60201b60201c565b11806102f757505f8473ffffffffffffffffffffffffffffffffffffffff163b115b5b156103135761030b61055560201b60201c565b9150506103b2565b801561035657836040517f9996b31500000000000000000000000000000000000000000000000000000000815260040161034d91906107b4565b60405180910390fd5b5f61036561054e60201b60201c565b111561037e5761037961057260201b60201c565b6103b0565b6040517fd6bda27500000000000000000000000000000000000000000000000000000000815260040160405180910390fd5b505b92915050565b5f3411156103f2576040517fb398979f00000000000000000000000000000000000000000000000000000000815260040160405180910390fd5b565b5f6104267fb53127684a568b3173ae13b9f8a6016e243e63b6e8ee1178d6a717850b5d61035f1b61053160201b60201c565b5f015f9054906101000a900473ffffffffffffffffffffffffffffffffffffffff16905090565b5f73ffffffffffffffffffffffffffffffffffffffff168173ffffffffffffffffffffffffffffffffffffffff16036104bd575f6040517f62e77ba20000000000000000000000000000000000000000000000000000000081526004016104b491906107b4565b60405180910390fd5b806104ef7fb53127684a568b3173ae13b9f8a6016e243e63b6e8ee1178d6a717850b5d61035f1b61053160201b60201c565b5f015f6101000a81548173ffffffffffffffffffffffffffffffffffffffff021916908373ffffffffffffffffffffffffffffffffffffffff16021790555050565b5f819050919050565b5f5f5f835160208501865af4905092915050565b5f3d905090565b606060405190503d81523d5f602083013e3d602001810160405290565b6040513d5f823e3d81fd5b5f604051905090565b5f5ffd5b5f5ffd5b5f73ffffffffffffffffffffffffffffffffffffffff82169050919050565b5f6105b78261058e565b9050919050565b6105c7816105ad565b81146105d1575f5ffd5b50565b5f815190506105e2816105be565b92915050565b5f5ffd5b5f5ffd5b5f601f19601f8301169050919050565b7f4e487b71000000000000000000000000000000000000000000000000000000005f52604160045260245ffd5b610636826105f0565b810181811067ffffffffffffffff8211171561065557610654610600565b5b80604052505050565b5f61066761057d565b9050610673828261062d565b919050565b5f67ffffffffffffffff82111561069257610691610600565b5b61069b826105f0565b9050602081019050919050565b8281835e5f83830152505050565b5f6106c86106c384610678565b61065e565b9050828152602081018484840111156106e4576106e36105ec565b5b6106ef8482856106a8565b509392505050565b5f82601f83011261070b5761070a6105e8565b5b815161071b8482602086016106b6565b91505092915050565b5f5f6040838503121561073a57610739610586565b5b5f610747858286016105d4565b925050602083015167ffffffffffffffff8111156107685761076761058a565b5b610774858286016106f7565b9150509250929050565b610787816105ad565b82525050565b5f6040820190506107a05f83018561077e565b6107ad602083018461077e565b9392505050565b5f6020820190506107c75f83018461077e565b92915050565b6080516105fd6107e55f395f61015401526105fd5ff3fe608060405260043610610021575f3560e01c80634f1ef2861461002c57610022565b5b61002a610054565b005b348015610037575f5ffd5b50610052600480360381019061004d9190610542565b610066565b005b61006461005f610124565b610132565b565b61006e610151565b73ffffffffffffffffffffffffffffffffffffffff163373ffffffffffffffffffffffffffffffffffffffff16146100d2576040517fd2b576ec00000000000000000000000000000000000000000000000000000000815260040160405180910390fd5b61011f8383838080601f0160208091040260200160405190810160405280939291908181526020018383808284375f81840152601f19601f82011690508083019250505050505050610178565b505050565b5f61012d6101ea565b905090565b365f5f375f5f365f845af43d5f5f3e805f811461014d573d5ff35b3d5ffd5b5f7f0000000000000000000000000000000000000000000000000000000000000000905090565b6101818261023d565b8173ffffffffffffffffffffffffffffffffffffffff167fbc7cd75a20ee27fd9adebab32041f755214dbc6bffa90cc0225b39da2e5c2d3b60405160405180910390a25f815111156101dd576101d78282610306565b506101e6565b6101e56103f7565b5b5050565b5f6102167f360894a13ba1a3210667c828492db98dca3e2076cc3735a920a3ca505d382bbc5f1b610433565b5f015f9054906101000a900473ffffffffffffffffffffffffffffffffffffffff16905090565b5f8173ffffffffffffffffffffffffffffffffffffffff163b0361029857806040517f4c9c8ce300000000000000000000000000000000000000000000000000000000815260040161028f91906105ae565b60405180910390fd5b806102c47f360894a13ba1a3210667c828492db98dca3e2076cc3735a920a3ca505d382bbc5f1b610433565b5f015f6101000a81548173ffffffffffffffffffffffffffffffffffffffff021916908373ffffffffffffffffffffffffffffffffffffffff16021790555050565b60605f610313848461043c565b905080801561034957505f610326610450565b118061034857505f8473ffffffffffffffffffffffffffffffffffffffff163b115b5b1561035e57610356610457565b9150506103f1565b80156103a157836040517f9996b31500000000000000000000000000000000000000000000000000000000815260040161039891906105ae565b60405180910390fd5b5f6103aa610450565b11156103bd576103b8610474565b6103ef565b6040517fd6bda27500000000000000000000000000000000000000000000000000000000815260040160405180910390fd5b505b92915050565b5f341115610431576040517fb398979f00000000000000000000000000000000000000000000000000000000815260040160405180910390fd5b565b5f819050919050565b5f5f5f835160208501865af4905092915050565b5f3d905090565b606060405190503d81523d5f602083013e3d602001810160405290565b6040513d5f823e3d81fd5b5f5ffd5b5f5ffd5b5f73ffffffffffffffffffffffffffffffffffffffff82169050919050565b5f6104b082610487565b9050919050565b6104c0816104a6565b81146104ca575f5ffd5b50565b5f813590506104db816104b7565b92915050565b5f5ffd5b5f5ffd5b5f5ffd5b5f5f83601f840112610502576105016104e1565b5b8235905067ffffffffffffffff81111561051f5761051e6104e5565b5b60208301915083600182028301111561053b5761053a6104e9565b5b9250929050565b5f5f5f604084860312156105595761055861047f565b5b5f610566868287016104cd565b935050602084013567ffffffffffffffff81111561058757610586610483565b5b610593868287016104ed565b92509250509250925092565b6105a8816104a6565b82525050565b5f6020820190506105c15f83018461059f565b9291505056fea2646970667358221220371c92f27f16028c1bbec961057bfd93c8ed9c646388bd7c4826e00de950d9fe64736f6c63430008230033a2646970667358221220f50eeb75aae2b781e02ac9bde2306c751027937853f597f13c359290ecfd0b0b64736f6c63430008230033","linkReferences":{}},"methodIdentifiers":{"blacklist(uint64)":"b572a966","blacklisted(uint64)":"b6caa119","create(uint64,address,bytes)":"3ac04911","entity(uint256)":"b42ba2a2","implementation(uint64)":"f9661602","isEntity(address)":"14887c58","lastVersion()":"64dfea06","migrate(address,uint64,bytes)":"58336662","owner()":"8da5cb5b","renounceOwnership()":"715018a6","totalEntities()":"5cd8b15e","transferOwnership(address)":"f2fde38b","whitelist(address)":"9b19251a"},"id":122}