{"abi":[{"type":"constructor","inputs":[{"name":"whoRegistry","type":"address","internalType":"address"},{"name":"whereRegistry","type":"address","internalType":"address"},{"name":"name","type":"string","internalType":"string"}],"stateMutability":"nonpayable"},{"type":"function","name":"WHERE_REGISTRY","inputs":[],"outputs":[{"name":"","type":"address","internalType":"address"}],"stateMutability":"view"},{"type":"function","name":"WHO_REGISTRY","inputs":[],"outputs":[{"name":"","type":"address","internalType":"address"}],"stateMutability":"view"},{"type":"function","name":"eip712Domain","inputs":[],"outputs":[{"name":"fields","type":"bytes1","internalType":"bytes1"},{"name":"name","type":"string","internalType":"string"},{"name":"version","type":"string","internalType":"string"},{"name":"chainId","type":"uint256","internalType":"uint256"},{"name":"verifyingContract","type":"address","internalType":"address"},{"name":"salt","type":"bytes32","internalType":"bytes32"},{"name":"extensions","type":"uint256[]","internalType":"uint256[]"}],"stateMutability":"view"},{"type":"function","name":"increaseNonce","inputs":[{"name":"where","type":"address","internalType":"address"}],"outputs":[],"stateMutability":"nonpayable"},{"type":"function","name":"isOptedIn","inputs":[{"name":"who","type":"address","internalType":"address"},{"name":"where","type":"address","internalType":"address"}],"outputs":[{"name":"","type":"bool","internalType":"bool"}],"stateMutability":"view"},{"type":"function","name":"isOptedInAt","inputs":[{"name":"who","type":"address","internalType":"address"},{"name":"where","type":"address","internalType":"address"},{"name":"timestamp","type":"uint48","internalType":"uint48"},{"name":"hint","type":"bytes","internalType":"bytes"}],"outputs":[{"name":"","type":"bool","internalType":"bool"}],"stateMutability":"view"},{"type":"function","name":"nonces","inputs":[{"name":"who","type":"address","internalType":"address"},{"name":"where","type":"address","internalType":"address"}],"outputs":[{"name":"nonce","type":"uint256","internalType":"uint256"}],"stateMutability":"view"},{"type":"function","name":"optIn","inputs":[{"name":"where","type":"address","internalType":"address"}],"outputs":[],"stateMutability":"nonpayable"},{"type":"function","name":"optIn","inputs":[{"name":"who","type":"address","internalType":"address"},{"name":"where","type":"address","internalType":"address"},{"name":"deadline","type":"uint48","internalType":"uint48"},{"name":"signature","type":"bytes","internalType":"bytes"}],"outputs":[],"stateMutability":"nonpayable"},{"type":"function","name":"optOut","inputs":[{"name":"who","type":"address","internalType":"address"},{"name":"where","type":"address","internalType":"address"},{"name":"deadline","type":"uint48","internalType":"uint48"},{"name":"signature","type":"bytes","internalType":"bytes"}],"outputs":[],"stateMutability":"nonpayable"},{"type":"function","name":"optOut","inputs":[{"name":"where","type":"address","internalType":"address"}],"outputs":[],"stateMutability":"nonpayable"},{"type":"function","name":"staticDelegateCall","inputs":[{"name":"target","type":"address","internalType":"address"},{"name":"data","type":"bytes","internalType":"bytes"}],"outputs":[],"stateMutability":"nonpayable"},{"type":"event","name":"EIP712DomainChanged","inputs":[],"anonymous":false},{"type":"event","name":"IncreaseNonce","inputs":[{"name":"who","type":"address","indexed":true,"internalType":"address"},{"name":"where","type":"address","indexed":true,"internalType":"address"}],"anonymous":false},{"type":"event","name":"OptIn","inputs":[{"name":"who","type":"address","indexed":true,"internalType":"address"},{"name":"where","type":"address","indexed":true,"internalType":"address"}],"anonymous":false},{"type":"event","name":"OptOut","inputs":[{"name":"who","type":"address","indexed":true,"internalType":"address"},{"name":"where","type":"address","indexed":true,"internalType":"address"}],"anonymous":false},{"type":"error","name":"AlreadyOptedIn","inputs":[]},{"type":"error","name":"CheckpointUnorderedInsertion","inputs":[]},{"type":"error","name":"ExpiredSignature","inputs":[]},{"type":"error","name":"InvalidShortString","inputs":[]},{"type":"error","name":"InvalidSignature","inputs":[]},{"type":"error","name":"NotOptedIn","inputs":[]},{"type":"error","name":"NotWhereEntity","inputs":[]},{"type":"error","name":"NotWho","inputs":[]},{"type":"error","name":"OptOutCooldown","inputs":[]},{"type":"error","name":"SafeCastOverflowedUintDowncast","inputs":[{"name":"bits","type":"uint8","internalType":"uint8"},{"name":"value","type":"uint256","internalType":"uint256"}]},{"type":"error","name":"StringTooLong","inputs":[{"name":"str","type":"string","internalType":"string"}]}],"bytecode":{"object":"0x6101a0604052348015610010575f5ffd5b506040516132ab3803806132ab83398181016040528101906100329190610440565b806040518060400160405280600181526020017f310000000000000000000000000000000000000000000000000000000000000081525061007c5f8361018460201b90919060201c565b610120818152505061009860018261018460201b90919060201c565b6101408181525050818051906020012060e08181525050808051906020012061010081815250504660a081815250506100d56101d160201b60201c565b608081815250503073ffffffffffffffffffffffffffffffffffffffff1660c08173ffffffffffffffffffffffffffffffffffffffff168152505050508273ffffffffffffffffffffffffffffffffffffffff166101608173ffffffffffffffffffffffffffffffffffffffff16815250508173ffffffffffffffffffffffffffffffffffffffff166101808173ffffffffffffffffffffffffffffffffffffffff168152505050505061091e565b5f6020835110156101a55761019e8361022b60201b60201c565b90506101cb565b826101b58361029060201b60201c565b5f0190816101c391906106cd565b5060ff5f1b90505b92915050565b5f7f8b73c3c69bb8fe3d512ecc4cf759cc79239f7b179b0ffacaa9a75d522b39400f60e0516101005146306040516020016102109594939291906107d2565b60405160208183030381529060405280519060200120905090565b5f5f829050601f8151111561027757826040517f305a27a900000000000000000000000000000000000000000000000000000000815260040161026e919061086b565b60405180910390fd5b805181610283906108b8565b5f1c175f1b915050919050565b5f819050919050565b5f604051905090565b5f5ffd5b5f5ffd5b5f73ffffffffffffffffffffffffffffffffffffffff82169050919050565b5f6102d3826102aa565b9050919050565b6102e3816102c9565b81146102ed575f5ffd5b50565b5f815190506102fe816102da565b92915050565b5f5ffd5b5f5ffd5b5f601f19601f8301169050919050565b7f4e487b71000000000000000000000000000000000000000000000000000000005f52604160045260245ffd5b6103528261030c565b810181811067ffffffffffffffff821117156103715761037061031c565b5b80604052505050565b5f610383610299565b905061038f8282610349565b919050565b5f67ffffffffffffffff8211156103ae576103ad61031c565b5b6103b78261030c565b9050602081019050919050565b8281835e5f83830152505050565b5f6103e46103df84610394565b61037a565b905082815260208101848484011115610400576103ff610308565b5b61040b8482856103c4565b509392505050565b5f82601f83011261042757610426610304565b5b81516104378482602086016103d2565b91505092915050565b5f5f5f60608486031215610457576104566102a2565b5b5f610464868287016102f0565b9350506020610475868287016102f0565b925050604084015167ffffffffffffffff811115610496576104956102a6565b5b6104a286828701610413565b9150509250925092565b5f81519050919050565b7f4e487b71000000000000000000000000000000000000000000000000000000005f52602260045260245ffd5b5f60028204905060018216806104fa57607f821691505b60208210810361050d5761050c6104b6565b5b50919050565b5f819050815f5260205f209050919050565b5f6020601f8301049050919050565b5f82821b905092915050565b5f6008830261056f7fffffffffffffffffffffffffffffffffffffffffffffffffffffffffffffffff82610534565b6105798683610534565b95508019841693508086168417925050509392505050565b5f819050919050565b5f819050919050565b5f6105bd6105b86105b384610591565b61059a565b610591565b9050919050565b5f819050919050565b6105d6836105a3565b6105ea6105e2826105c4565b848454610540565b825550505050565b5f5f905090565b6106016105f2565b61060c8184846105cd565b505050565b5f5b82811015610632576106275f8284016105f9565b600181019050610613565b505050565b601f82111561068557828211156106845761065181610513565b61065a83610525565b61066385610525565b6020861015610670575f90505b80830161067f82840382610611565b505050505b5b505050565b5f82821c905092915050565b5f6106a55f198460080261068a565b1980831691505092915050565b5f6106bd8383610696565b9150826002028217905092915050565b6106d6826104ac565b67ffffffffffffffff8111156106ef576106ee61031c565b5b6106f982546104e3565b610704828285610637565b5f60209050601f831160018114610735575f8415610723578287015190505b61072d85826106b2565b865550610794565b601f19841661074386610513565b5f5b8281101561076a57848901518255600182019150602085019450602081019050610745565b868310156107875784890151610783601f891682610696565b8355505b6001600288020188555050505b505050505050565b5f819050919050565b6107ae8161079c565b82525050565b6107bd81610591565b82525050565b6107cc816102c9565b82525050565b5f60a0820190506107e55f8301886107a5565b6107f260208301876107a5565b6107ff60408301866107a5565b61080c60608301856107b4565b61081960808301846107c3565b9695505050505050565b5f82825260208201905092915050565b5f61083d826104ac565b6108478185610823565b93506108578185602086016103c4565b6108608161030c565b840191505092915050565b5f6020820190508181035f8301526108838184610833565b905092915050565b5f81519050919050565b5f819050602082019050919050565b5f6108af825161079c565b80915050919050565b5f6108c28261088b565b826108cc84610895565b90506108d7816108a4565b92506020821015610917576109127fffffffffffffffffffffffffffffffffffffffffffffffffffffffffffffffff83602003600802610534565b831692505b5050919050565b60805160a05160c05160e051610100516101205161014051610160516101805161291a6109915f395f81816103f20152610ec601525f81816106800152610df801525f6109d801525f61099d01525f611b4d01525f611b2c01525f61162701525f61167d01525f6116a6015261291a5ff3fe608060405234801561000f575f5ffd5b50600436106100b2575f3560e01c806393f79bc31161006f57806393f79bc3146101a45780639f86fd85146101c0578063b1138ad1146101dc578063c4b5d62c146101f8578063ced44ba714610216578063d461048314610232576100b2565b8063220d32d4146100b6578063530e1d43146100e65780636d0fae4a146101165780638247a97c1461013457806384b0196e146101505780639333fbda14610174575b5f5ffd5b6100d060048036038101906100cb9190611f97565b61024e565b6040516100dd9190611fef565b60405180910390f35b61010060048036038101906100fb91906120a4565b6102f6565b60405161010d9190611fef565b60405180910390f35b61011e6103f0565b60405161012b9190612137565b60405180910390f35b61014e60048036038101906101499190612150565b610414565b005b610158610421565b60405161016b979695949392919061230c565b60405180910390f35b61018e60048036038101906101899190611f97565b6104c6565b60405161019b919061238e565b60405180910390f35b6101be60048036038101906101b991906120a4565b6104e6565b005b6101da60048036038101906101d591906123a7565b6105d9565b005b6101f660048036038101906101f19190612150565b610671565b005b61020061067e565b60405161020d9190612137565b60405180910390f35b610230600480360381019061022b91906120a4565b6106a2565b005b61024c60048036038101906102479190612150565b610796565b005b5f60016102d160035f8673ffffffffffffffffffffffffffffffffffffffff1673ffffffffffffffffffffffffffffffffffffffff1681526020019081526020015f205f8573ffffffffffffffffffffffffffffffffffffffff1673ffffffffffffffffffffffffffffffffffffffff1681526020019081526020015f206107a3565b79ffffffffffffffffffffffffffffffffffffffffffffffffffff1614905092915050565b5f60016103c88585858080601f0160208091040260200160405190810160405280939291908181526020018383808284375f81840152601f19601f8201169050808301925050505050505060035f8b73ffffffffffffffffffffffffffffffffffffffff1673ffffffffffffffffffffffffffffffffffffffff1681526020019081526020015f205f8a73ffffffffffffffffffffffffffffffffffffffff1673ffffffffffffffffffffffffffffffffffffffff1681526020019081526020015f206107b69092919063ffffffff16565b79ffffffffffffffffffffffffffffffffffffffffffffffffffff1614905095945050505050565b7f000000000000000000000000000000000000000000000000000000000000000081565b61041e33826108b2565b50565b5f6060805f5f5f6060610432610995565b61043a6109cf565b46305f5f1b5f67ffffffffffffffff81111561045957610458612404565b5b6040519080825280602002602001820160405280156104875781602001602082028036833780820191505090505b507f0f00000000000000000000000000000000000000000000000000000000000000959493929190965096509650965096509650965090919293949596565b6002602052815f5260405f20602052805f5260405f205f91509150505481565b826104ef610a0a565b65ffffffffffff168165ffffffffffff161015610538576040517fdf4cc36d00000000000000000000000000000000000000000000000000000000815260040160405180910390fd5b610591866105485f898989610a19565b85858080601f0160208091040260200160405190810160405280939291908181526020018383808284375f81840152601f19601f82011690508083019250505050505050610b1f565b6105c7576040517f8baa579f00000000000000000000000000000000000000000000000000000000815260040160405180910390fd5b6105d18686610bcb565b505050505050565b5f5f8473ffffffffffffffffffffffffffffffffffffffff16848460405161060292919061246d565b5f60405180830381855af49150503d805f811461063a576040519150601f19603f3d011682016040523d82523d5f602084013e61063f565b606091505b50915091505f82826040516020016106589291906124d7565b6040516020818303038152906040529050805181602001fd5b61067b3382610df6565b50565b7f000000000000000000000000000000000000000000000000000000000000000081565b826106ab610a0a565b65ffffffffffff168165ffffffffffff1610156106f4576040517fdf4cc36d00000000000000000000000000000000000000000000000000000000815260040160405180910390fd5b61074e866107056001898989610a19565b85858080601f0160208091040260200160405190810160405280939291908181526020018383808284375f81840152601f19601f82011690508083019250505050505050610b1f565b610784576040517f8baa579f00000000000000000000000000000000000000000000000000000000815260040160405180910390fd5b61078e8686610df6565b505050505050565b6107a03382610bcb565b50565b5f6107af825f016110d1565b9050919050565b5f5f8251036107d0576107c98484611133565b90506108ab565b5f828060200190518101906107e5919061253e565b90505f6107f28683611151565b90508465ffffffffffff16815f015165ffffffffffff160361081c578060200151925050506108ab565b8465ffffffffffff16815f015165ffffffffffff1610801561088957506001610844876111ba565b61084e9190612596565b8263ffffffff16148061088857508465ffffffffffff1661087b8760018561087691906125c9565b611151565b5f015165ffffffffffff16115b5b1561089c578060200151925050506108ab565b6108a68686611133565b925050505b9392505050565b60025f8373ffffffffffffffffffffffffffffffffffffffff1673ffffffffffffffffffffffffffffffffffffffff1681526020019081526020015f205f8273ffffffffffffffffffffffffffffffffffffffff1673ffffffffffffffffffffffffffffffffffffffff1681526020019081526020015f205f8154600101919050819055508073ffffffffffffffffffffffffffffffffffffffff168273ffffffffffffffffffffffffffffffffffffffff167f8ed32926585579e6191b145240df788165f4957e1135f30a00e08ee8feb9d68060405160405180910390a35050565b60606109ca5f7f00000000000000000000000000000000000000000000000000000000000000006111cd90919063ffffffff16565b905090565b6060610a0560017f00000000000000000000000000000000000000000000000000000000000000006111cd90919063ffffffff16565b905090565b5f610a144261127a565b905090565b5f610b1585610a48577f7830334d17a05ab8aeca8f1778e27182208fc2d454ac7b38a4edc2069ee3a4a6610a6a565b7f6ab5200f1123a8d51d1695a9e5e757267926b53c6359f90b8873cc7dcc30ea2c5b858560025f8973ffffffffffffffffffffffffffffffffffffffff1673ffffffffffffffffffffffffffffffffffffffff1681526020019081526020015f205f8873ffffffffffffffffffffffffffffffffffffffff1673ffffffffffffffffffffffffffffffffffffffff1681526020019081526020015f205486604051602001610afa95949392919061260f565b604051602081830303815290604052805190602001206112d3565b9050949350505050565b5f5f8473ffffffffffffffffffffffffffffffffffffffff163b03610bb6575f5f610b4a85856112ec565b50915091505f6003811115610b6257610b61612660565b5b816003811115610b7557610b74612660565b5b148015610bad57508573ffffffffffffffffffffffffffffffffffffffff168273ffffffffffffffffffffffffffffffffffffffff16145b92505050610bc4565b610bc1848484611341565b90505b9392505050565b5f5f610c4d60035f8673ffffffffffffffffffffffffffffffffffffffff1673ffffffffffffffffffffffffffffffffffffffff1681526020019081526020015f205f8573ffffffffffffffffffffffffffffffffffffffff1673ffffffffffffffffffffffffffffffffffffffff1681526020019081526020015f20611392565b92509250505f8179ffffffffffffffffffffffffffffffffffffffffffffffffffff1603610ca7576040517f6961367200000000000000000000000000000000000000000000000000000000815260040160405180910390fd5b610caf610a0a565b65ffffffffffff168265ffffffffffff1603610cf7576040517fa46fd2dc00000000000000000000000000000000000000000000000000000000815260040160405180910390fd5b610d8a610d02610a0a565b5f60035f8873ffffffffffffffffffffffffffffffffffffffff1673ffffffffffffffffffffffffffffffffffffffff1681526020019081526020015f205f8773ffffffffffffffffffffffffffffffffffffffff1673ffffffffffffffffffffffffffffffffffffffff1681526020019081526020015f206113ad9092919063ffffffff16565b5050610d9684846108b2565b8273ffffffffffffffffffffffffffffffffffffffff168473ffffffffffffffffffffffffffffffffffffffff167f1629cd9ad365627cf8408d19c50224af8f3213c1a18ae48062d92e22bddf7de560405160405180910390a350505050565b7f000000000000000000000000000000000000000000000000000000000000000073ffffffffffffffffffffffffffffffffffffffff166314887c58836040518263ffffffff1660e01b8152600401610e4f9190612137565b602060405180830381865afa158015610e6a573d5f5f3e3d5ffd5b505050506040513d601f19601f82011682018060405250810190610e8e91906126b7565b610ec4576040517ffb9ff95000000000000000000000000000000000000000000000000000000000815260040160405180910390fd5b7f000000000000000000000000000000000000000000000000000000000000000073ffffffffffffffffffffffffffffffffffffffff166314887c58826040518263ffffffff1660e01b8152600401610f1d9190612137565b602060405180830381865afa158015610f38573d5f5f3e3d5ffd5b505050506040513d601f19601f82011682018060405250810190610f5c91906126b7565b610f92576040517f21f5408d00000000000000000000000000000000000000000000000000000000815260040160405180910390fd5b610f9c828261024e565b15610fd3576040517fdcdeaba300000000000000000000000000000000000000000000000000000000815260040160405180910390fd5b611067610fde610a0a565b600160035f8673ffffffffffffffffffffffffffffffffffffffff1673ffffffffffffffffffffffffffffffffffffffff1681526020019081526020015f205f8573ffffffffffffffffffffffffffffffffffffffff1673ffffffffffffffffffffffffffffffffffffffff1681526020019081526020015f206113ad9092919063ffffffff16565b505061107382826108b2565b8073ffffffffffffffffffffffffffffffffffffffff168273ffffffffffffffffffffffffffffffffffffffff167f9b730d5b907ee509de729817a2bb37e404418ba569b3a50f36192372f973cb4160405160405180910390a35050565b5f5f825f018054905090505f8114611129576110fb835f016001836110f69190612596565b6113d2565b5f0160069054906101000a900479ffffffffffffffffffffffffffffffffffffffffffffffffffff1661112b565b5f5b915050919050565b5f61114982845f016113e490919063ffffffff16565b905092915050565b611159611ebd565b5f61116f83855f016114d490919063ffffffff16565b90506040518060400160405280825f015165ffffffffffff168152602001826020015179ffffffffffffffffffffffffffffffffffffffffffffffffffff1681525091505092915050565b5f6111c6825f016115a3565b9050919050565b606060ff5f1b83146111e9576111e2836115b2565b9050611274565b8180546111f59061270f565b80601f01602080910402602001604051908101604052809291908181526020018280546112219061270f565b801561126c5780601f106112435761010080835404028352916020019161126c565b820191905f5260205f20905b81548152906001019060200180831161124f57829003601f168201915b505050505090505b92915050565b5f65ffffffffffff80168211156112cb576030826040517f6dfcc6500000000000000000000000000000000000000000000000000000000081526004016112c292919061278d565b60405180910390fd5b819050919050565b5f6112e56112df611624565b836116da565b9050919050565b5f5f5f604184510361132c575f5f5f602087015192506040870151915060608701515f1a905061131e8882858561171a565b95509550955050505061133a565b5f600285515f1b9250925092505b9250925092565b5f5f631626ba7e60e01b90505f83519050604051828152856004820152604060248201526020820185604483015e60205f60648401838a5afa835f5114601f3d111681169450505050509392505050565b5f5f5f6113a0845f01611801565b9250925092509193909250565b5f5f6113c68484875f016118909092919063ffffffff16565b91509150935093915050565b5f825f528160205f2001905092915050565b5f5f835f018054905090505f5f90505f8290506005831115611468575f61140a846118ab565b846114159190612596565b9050611423875f01826113d2565b5f015f9054906101000a900465ffffffffffff1665ffffffffffff168665ffffffffffff16101561145657809150611466565b60018161146391906127b4565b92505b505b5f611477875f01878585611a45565b90505f81146114c657611498875f016001836114939190612596565b6113d2565b5f0160069054906101000a900479ffffffffffffffffffffffffffffffffffffffffffffffffffff166114c8565b5f5b94505050505092915050565b6114dc611ef9565b825f018263ffffffff16815481106114f7576114f66127e7565b5b905f5260205f20016040518060400160405290815f82015f9054906101000a900465ffffffffffff1665ffffffffffff1665ffffffffffff1681526020015f820160069054906101000a900479ffffffffffffffffffffffffffffffffffffffffffffffffffff1679ffffffffffffffffffffffffffffffffffffffffffffffffffff1679ffffffffffffffffffffffffffffffffffffffffffffffffffff1681525050905092915050565b5f815f01805490509050919050565b60605f6115be83611aba565b90505f602067ffffffffffffffff8111156115dc576115db612404565b5b6040519080825280601f01601f19166020018201604052801561160e5781602001600182028036833780820191505090505b5090508181528360208201528092505050919050565b5f7f000000000000000000000000000000000000000000000000000000000000000073ffffffffffffffffffffffffffffffffffffffff163073ffffffffffffffffffffffffffffffffffffffff1614801561169f57507f000000000000000000000000000000000000000000000000000000000000000046145b156116cc577f000000000000000000000000000000000000000000000000000000000000000090506116d7565b6116d4611b08565b90505b90565b5f6040517f190100000000000000000000000000000000000000000000000000000000000081528360028201528260228201526042812091505092915050565b5f5f5f7f7fffffffffffffffffffffffffffffff5d576e7357a4501ddfe92f46681b20a0845f1c1115611756575f6003859250925092506117f7565b5f6001888888886040515f81526020016040526040516117799493929190612823565b6020604051602081039080840390855afa158015611799573d5f5f3e3d5ffd5b5050506020604051035190505f73ffffffffffffffffffffffffffffffffffffffff168173ffffffffffffffffffffffffffffffffffffffff16036117ea575f60015f5f1b935093509350506117f7565b805f5f5f1b935093509350505b9450945094915050565b5f5f5f5f845f018054905090505f8103611824575f5f5f93509350935050611889565b5f61183d865f016001846118389190612596565b6113d2565b90506001815f015f9054906101000a900465ffffffffffff16825f0160069054906101000a900479ffffffffffffffffffffffffffffffffffffffffffffffffffff1694509450945050505b9193909250565b5f5f61189f855f018585611b9d565b91509150935093915050565b5f600182116118bc57819050611a40565b5f8290505f6001905070010000000000000000000000000000000082106118ec57608082901c9150604081901b90505b68010000000000000000821061190b57604082901c9150602081901b90505b640100000000821061192657602082901c9150601081901b90505b62010000821061193f57601082901c9150600881901b90505b610100821061195757600882901c9150600481901b90505b6010821061196e57600482901c9150600281901b90505b6004821061197e57600181901b90505b600181600302901c9050600181858161199a57611999612866565b5b048201901c905060018185816119b3576119b2612866565b5b048201901c905060018185816119cc576119cb612866565b5b048201901c905060018185816119e5576119e4612866565b5b048201901c905060018185816119fe576119fd612866565b5b048201901c90506001818581611a1757611a16612866565b5b048201901c9050611a39818581611a3157611a30612866565b5b048211611e91565b8103925050505b919050565b5f5b81831015611aaf575f611a5a8484611e9c565b90508465ffffffffffff16611a6f87836113d2565b5f015f9054906101000a900465ffffffffffff1665ffffffffffff161115611a9957809250611aa9565b600181611aa691906127b4565b93505b50611a47565b819050949350505050565b5f5f60ff835f1c169050601f811115611aff576040517fb3512b0c00000000000000000000000000000000000000000000000000000000815260040160405180910390fd5b80915050919050565b5f7f8b73c3c69bb8fe3d512ecc4cf759cc79239f7b179b0ffacaa9a75d522b39400f7f00000000000000000000000000000000000000000000000000000000000000007f00000000000000000000000000000000000000000000000000000000000000004630604051602001611b82959493929190612893565b60405160208183030381529060405280519060200120905090565b5f5f5f858054905090505f811115611da9575f611bc687600184611bc19190612596565b6113d2565b90505f815f015f9054906101000a900465ffffffffffff1690505f825f0160069054906101000a900479ffffffffffffffffffffffffffffffffffffffffffffffffffff1690508765ffffffffffff168265ffffffffffff161115611c57576040517f2520601d00000000000000000000000000000000000000000000000000000000815260040160405180910390fd5b8765ffffffffffff168265ffffffffffff1603611cc15786835f0160066101000a81548179ffffffffffffffffffffffffffffffffffffffffffffffffffff021916908379ffffffffffffffffffffffffffffffffffffffffffffffffffff160217905550611d9a565b8860405180604001604052808a65ffffffffffff1681526020018979ffffffffffffffffffffffffffffffffffffffffffffffffffff16815250908060018154018082558091505060019003905f5260205f20015f909190919091505f820151815f015f6101000a81548165ffffffffffff021916908365ffffffffffff1602179055506020820151815f0160066101000a81548179ffffffffffffffffffffffffffffffffffffffffffffffffffff021916908379ffffffffffffffffffffffffffffffffffffffffffffffffffff16021790555050505b80879550955050505050611e89565b8560405180604001604052808765ffffffffffff1681526020018679ffffffffffffffffffffffffffffffffffffffffffffffffffff16815250908060018154018082558091505060019003905f5260205f20015f909190919091505f820151815f015f6101000a81548165ffffffffffff021916908365ffffffffffff1602179055506020820151815f0160066101000a81548179ffffffffffffffffffffffffffffffffffffffffffffffffffff021916908379ffffffffffffffffffffffffffffffffffffffffffffffffffff16021790555050505f8492509250505b935093915050565b5f8115159050919050565b5f600282841881611eb057611eaf612866565b5b0482841601905092915050565b60405180604001604052805f65ffffffffffff1681526020015f79ffffffffffffffffffffffffffffffffffffffffffffffffffff1681525090565b60405180604001604052805f65ffffffffffff1681526020015f79ffffffffffffffffffffffffffffffffffffffffffffffffffff1681525090565b5f5ffd5b5f5ffd5b5f73ffffffffffffffffffffffffffffffffffffffff82169050919050565b5f611f6682611f3d565b9050919050565b611f7681611f5c565b8114611f80575f5ffd5b50565b5f81359050611f9181611f6d565b92915050565b5f5f60408385031215611fad57611fac611f35565b5b5f611fba85828601611f83565b9250506020611fcb85828601611f83565b9150509250929050565b5f8115159050919050565b611fe981611fd5565b82525050565b5f6020820190506120025f830184611fe0565b92915050565b5f65ffffffffffff82169050919050565b61202281612008565b811461202c575f5ffd5b50565b5f8135905061203d81612019565b92915050565b5f5ffd5b5f5ffd5b5f5ffd5b5f5f83601f84011261206457612063612043565b5b8235905067ffffffffffffffff81111561208157612080612047565b5b60208301915083600182028301111561209d5761209c61204b565b5b9250929050565b5f5f5f5f5f608086880312156120bd576120bc611f35565b5b5f6120ca88828901611f83565b95505060206120db88828901611f83565b94505060406120ec8882890161202f565b935050606086013567ffffffffffffffff81111561210d5761210c611f39565b5b6121198882890161204f565b92509250509295509295909350565b61213181611f5c565b82525050565b5f60208201905061214a5f830184612128565b92915050565b5f6020828403121561216557612164611f35565b5b5f61217284828501611f83565b91505092915050565b5f7fff0000000000000000000000000000000000000000000000000000000000000082169050919050565b6121af8161217b565b82525050565b5f81519050919050565b5f82825260208201905092915050565b8281835e5f83830152505050565b5f601f19601f8301169050919050565b5f6121f7826121b5565b61220181856121bf565b93506122118185602086016121cf565b61221a816121dd565b840191505092915050565b5f819050919050565b61223781612225565b82525050565b5f819050919050565b61224f8161223d565b82525050565b5f81519050919050565b5f82825260208201905092915050565b5f819050602082019050919050565b61228781612225565b82525050565b5f612298838361227e565b60208301905092915050565b5f602082019050919050565b5f6122ba82612255565b6122c4818561225f565b93506122cf8361226f565b805f5b838110156122ff5781516122e6888261228d565b97506122f1836122a4565b9250506001810190506122d2565b5085935050505092915050565b5f60e08201905061231f5f83018a6121a6565b818103602083015261233181896121ed565b9050818103604083015261234581886121ed565b9050612354606083018761222e565b6123616080830186612128565b61236e60a0830185612246565b81810360c083015261238081846122b0565b905098975050505050505050565b5f6020820190506123a15f83018461222e565b92915050565b5f5f5f604084860312156123be576123bd611f35565b5b5f6123cb86828701611f83565b935050602084013567ffffffffffffffff8111156123ec576123eb611f39565b5b6123f88682870161204f565b92509250509250925092565b7f4e487b71000000000000000000000000000000000000000000000000000000005f52604160045260245ffd5b5f81905092915050565b828183375f83830152505050565b5f6124548385612431565b935061246183858461243b565b82840190509392505050565b5f612479828486612449565b91508190509392505050565b5f81519050919050565b5f82825260208201905092915050565b5f6124a982612485565b6124b3818561248f565b93506124c38185602086016121cf565b6124cc816121dd565b840191505092915050565b5f6040820190506124ea5f830185611fe0565b81810360208301526124fc818461249f565b90509392505050565b5f63ffffffff82169050919050565b61251d81612505565b8114612527575f5ffd5b50565b5f8151905061253881612514565b92915050565b5f6020828403121561255357612552611f35565b5b5f6125608482850161252a565b91505092915050565b7f4e487b71000000000000000000000000000000000000000000000000000000005f52601160045260245ffd5b5f6125a082612225565b91506125ab83612225565b92508282039050818111156125c3576125c2612569565b5b92915050565b5f6125d382612505565b91506125de83612505565b9250828201905063ffffffff8111156125fa576125f9612569565b5b92915050565b61260981612008565b82525050565b5f60a0820190506126225f830188612246565b61262f6020830187612128565b61263c6040830186612128565b612649606083018561222e565b6126566080830184612600565b9695505050505050565b7f4e487b71000000000000000000000000000000000000000000000000000000005f52602160045260245ffd5b61269681611fd5565b81146126a0575f5ffd5b50565b5f815190506126b18161268d565b92915050565b5f602082840312156126cc576126cb611f35565b5b5f6126d9848285016126a3565b91505092915050565b7f4e487b71000000000000000000000000000000000000000000000000000000005f52602260045260245ffd5b5f600282049050600182168061272657607f821691505b602082108103612739576127386126e2565b5b50919050565b5f819050919050565b5f60ff82169050919050565b5f819050919050565b5f61277761277261276d8461273f565b612754565b612748565b9050919050565b6127878161275d565b82525050565b5f6040820190506127a05f83018561277e565b6127ad602083018461222e565b9392505050565b5f6127be82612225565b91506127c983612225565b92508282019050808211156127e1576127e0612569565b5b92915050565b7f4e487b71000000000000000000000000000000000000000000000000000000005f52603260045260245ffd5b61281d81612748565b82525050565b5f6080820190506128365f830187612246565b6128436020830186612814565b6128506040830185612246565b61285d6060830184612246565b95945050505050565b7f4e487b71000000000000000000000000000000000000000000000000000000005f52601260045260245ffd5b5f60a0820190506128a65f830188612246565b6128b36020830187612246565b6128c06040830186612246565b6128cd606083018561222e565b6128da6080830184612128565b969550505050505056fea2646970667358221220e427d1f8ad8943ace866bec7ccf8717351bf67165035f6b49e0459b4161011d364736f6c63430008230033","linkReferences":{}},"methodIdentifiers":{"WHERE_REGISTRY()":"6d0fae4a","WHO_REGISTRY()":"c4b5d62c","eip712Domain()":"84b0196e","increaseNonce(address)":"8247a97c","isOptedIn(address,address)":"220d32d4","isOptedInAt(address,address,uint48,bytes)":"530e1d43","nonces(address,address)":"9333fbda","optIn(address)":"b1138ad1","optIn(address,address,uint48,bytes)":"ced44ba7","optOut(address)":"d4610483","optOut(address,address,uint48,bytes)":"93f79bc3","staticDelegateCall(address,bytes)":"9f86fd85"},"id":145}